{
  "contractName": "LastWord",
  "abi": [
    {
      "inputs": [
        {
          "internalType": "address",
          "name": "_proxyRegistryAddress",
          "type": "address"
        }
      ],
      "stateMutability": "nonpayable",
      "type": "constructor"
    },
    {
      "anonymous": false,
      "inputs": [
        {
          "indexed": true,
          "internalType": "address",
          "name": "account",
          "type": "address"
        },
        {
          "indexed": true,
          "internalType": "address",
          "name": "operator",
          "type": "address"
        },
        {
          "indexed": false,
          "internalType": "bool",
          "name": "approved",
          "type": "bool"
        }
      ],
      "name": "ApprovalForAll",
      "type": "event"
    },
    {
      "anonymous": false,
      "inputs": [
        {
          "indexed": true,
          "internalType": "address",
          "name": "previousOwner",
          "type": "address"
        },
        {
          "indexed": true,
          "internalType": "address",
          "name": "newOwner",
          "type": "address"
        }
      ],
      "name": "OwnershipTransferred",
      "type": "event"
    },
    {
      "anonymous": false,
      "inputs": [
        {
          "indexed": true,
          "internalType": "address",
          "name": "operator",
          "type": "address"
        },
        {
          "indexed": true,
          "internalType": "address",
          "name": "from",
          "type": "address"
        },
        {
          "indexed": true,
          "internalType": "address",
          "name": "to",
          "type": "address"
        },
        {
          "indexed": false,
          "internalType": "uint256[]",
          "name": "ids",
          "type": "uint256[]"
        },
        {
          "indexed": false,
          "internalType": "uint256[]",
          "name": "values",
          "type": "uint256[]"
        }
      ],
      "name": "TransferBatch",
      "type": "event"
    },
    {
      "anonymous": false,
      "inputs": [
        {
          "indexed": true,
          "internalType": "address",
          "name": "operator",
          "type": "address"
        },
        {
          "indexed": true,
          "internalType": "address",
          "name": "from",
          "type": "address"
        },
        {
          "indexed": true,
          "internalType": "address",
          "name": "to",
          "type": "address"
        },
        {
          "indexed": false,
          "internalType": "uint256",
          "name": "id",
          "type": "uint256"
        },
        {
          "indexed": false,
          "internalType": "uint256",
          "name": "value",
          "type": "uint256"
        }
      ],
      "name": "TransferSingle",
      "type": "event"
    },
    {
      "anonymous": false,
      "inputs": [
        {
          "indexed": false,
          "internalType": "string",
          "name": "value",
          "type": "string"
        },
        {
          "indexed": true,
          "internalType": "uint256",
          "name": "id",
          "type": "uint256"
        }
      ],
      "name": "URI",
      "type": "event"
    },
    {
      "inputs": [
        {
          "internalType": "address",
          "name": "account",
          "type": "address"
        },
        {
          "internalType": "uint256",
          "name": "id",
          "type": "uint256"
        }
      ],
      "name": "balanceOf",
      "outputs": [
        {
          "internalType": "uint256",
          "name": "",
          "type": "uint256"
        }
      ],
      "stateMutability": "view",
      "type": "function"
    },
    {
      "inputs": [
        {
          "internalType": "address[]",
          "name": "accounts",
          "type": "address[]"
        },
        {
          "internalType": "uint256[]",
          "name": "ids",
          "type": "uint256[]"
        }
      ],
      "name": "balanceOfBatch",
      "outputs": [
        {
          "internalType": "uint256[]",
          "name": "",
          "type": "uint256[]"
        }
      ],
      "stateMutability": "view",
      "type": "function"
    },
    {
      "inputs": [],
      "name": "owner",
      "outputs": [
        {
          "internalType": "address",
          "name": "",
          "type": "address"
        }
      ],
      "stateMutability": "view",
      "type": "function"
    },
    {
      "inputs": [],
      "name": "renounceOwnership",
      "outputs": [],
      "stateMutability": "nonpayable",
      "type": "function"
    },
    {
      "inputs": [
        {
          "internalType": "address",
          "name": "from",
          "type": "address"
        },
        {
          "internalType": "address",
          "name": "to",
          "type": "address"
        },
        {
          "internalType": "uint256[]",
          "name": "ids",
          "type": "uint256[]"
        },
        {
          "internalType": "uint256[]",
          "name": "amounts",
          "type": "uint256[]"
        },
        {
          "internalType": "bytes",
          "name": "data",
          "type": "bytes"
        }
      ],
      "name": "safeBatchTransferFrom",
      "outputs": [],
      "stateMutability": "nonpayable",
      "type": "function"
    },
    {
      "inputs": [
        {
          "internalType": "address",
          "name": "from",
          "type": "address"
        },
        {
          "internalType": "address",
          "name": "to",
          "type": "address"
        },
        {
          "internalType": "uint256",
          "name": "id",
          "type": "uint256"
        },
        {
          "internalType": "uint256",
          "name": "amount",
          "type": "uint256"
        },
        {
          "internalType": "bytes",
          "name": "data",
          "type": "bytes"
        }
      ],
      "name": "safeTransferFrom",
      "outputs": [],
      "stateMutability": "nonpayable",
      "type": "function"
    },
    {
      "inputs": [
        {
          "internalType": "address",
          "name": "operator",
          "type": "address"
        },
        {
          "internalType": "bool",
          "name": "approved",
          "type": "bool"
        }
      ],
      "name": "setApprovalForAll",
      "outputs": [],
      "stateMutability": "nonpayable",
      "type": "function"
    },
    {
      "inputs": [
        {
          "internalType": "bytes4",
          "name": "interfaceId",
          "type": "bytes4"
        }
      ],
      "name": "supportsInterface",
      "outputs": [
        {
          "internalType": "bool",
          "name": "",
          "type": "bool"
        }
      ],
      "stateMutability": "view",
      "type": "function"
    },
    {
      "inputs": [
        {
          "internalType": "address",
          "name": "newOwner",
          "type": "address"
        }
      ],
      "name": "transferOwnership",
      "outputs": [],
      "stateMutability": "nonpayable",
      "type": "function"
    },
    {
      "inputs": [
        {
          "internalType": "address",
          "name": "_to",
          "type": "address"
        },
        {
          "internalType": "string",
          "name": "_name",
          "type": "string"
        },
        {
          "internalType": "string",
          "name": "_word",
          "type": "string"
        },
        {
          "internalType": "bytes",
          "name": "_data",
          "type": "bytes"
        }
      ],
      "name": "mint",
      "outputs": [
        {
          "internalType": "uint256",
          "name": "",
          "type": "uint256"
        }
      ],
      "stateMutability": "payable",
      "type": "function"
    },
    {
      "inputs": [
        {
          "internalType": "uint256",
          "name": "tokenId",
          "type": "uint256"
        }
      ],
      "name": "get_mark",
      "outputs": [
        {
          "internalType": "string",
          "name": "mark",
          "type": "string"
        }
      ],
      "stateMutability": "view",
      "type": "function"
    },
    {
      "inputs": [
        {
          "internalType": "string",
          "name": "name",
          "type": "string"
        }
      ],
      "name": "get_id",
      "outputs": [
        {
          "internalType": "uint256",
          "name": "id_of_mark",
          "type": "uint256"
        }
      ],
      "stateMutability": "view",
      "type": "function"
    },
    {
      "inputs": [
        {
          "internalType": "uint256",
          "name": "_id",
          "type": "uint256"
        }
      ],
      "name": "uri",
      "outputs": [
        {
          "internalType": "string",
          "name": "",
          "type": "string"
        }
      ],
      "stateMutability": "view",
      "type": "function"
    },
    {
      "inputs": [
        {
          "internalType": "string",
          "name": "_newURI",
          "type": "string"
        }
      ],
      "name": "setURI",
      "outputs": [],
      "stateMutability": "nonpayable",
      "type": "function"
    },
    {
      "inputs": [
        {
          "internalType": "address",
          "name": "_owner",
          "type": "address"
        },
        {
          "internalType": "address",
          "name": "_operator",
          "type": "address"
        }
      ],
      "name": "isApprovedForAll",
      "outputs": [
        {
          "internalType": "bool",
          "name": "isOperator",
          "type": "bool"
        }
      ],
      "stateMutability": "view",
      "type": "function"
    }
  ],
  "bytecode": "0x60e06040526035608081815290620022f660a0398051620000299160059160209091019062000186565b5060006007553480156200003c57600080fd5b506040516200232b3803806200232b8339810160408190526200005f916200022c565b600580546200006e906200025e565b80601f01602080910402602001604051908101604052809291908181526020018280546200009c906200025e565b8015620000ed5780601f10620000c157610100808354040283529160200191620000ed565b820191906000526020600020905b815481529060010190602001808311620000cf57829003601f168201915b505050505062000103816200016d60201b60201c565b50600380546001600160a01b0319163390811790915560405181906000907f8be0079c531659141344cd1fd0a4f28419497f9722a3daafe3b4186f6b6457e0908290a350600480546001600160a01b0319166001600160a01b03929092169190911790556200029b565b80516200018290600290602084019062000186565b5050565b82805462000194906200025e565b90600052602060002090601f016020900481019282620001b8576000855562000203565b82601f10620001d357805160ff191683800117855562000203565b8280016001018555821562000203579182015b8281111562000203578251825591602001919060010190620001e6565b506200021192915062000215565b5090565b5b8082111562000211576000815560010162000216565b6000602082840312156200023f57600080fd5b81516001600160a01b03811681146200025757600080fd5b9392505050565b600181811c908216806200027357607f821691505b602082108114156200029557634e487b7160e01b600052602260045260246000fd5b50919050565b61204b80620002ab6000396000f3fe6080604052600436106100b75760003560e01c8062fdd58e146100bc57806301ffc9a7146100ef57806302fe53051461011f5780630e89341c146101415780632eb2c2d61461016e5780634e1273f41461018e578063715018a6146101bb5780638da5cb5b146101d0578063a22cb465146101f2578063acbcd03914610212578063d4e2e57914610225578063e985e9c514610245578063f242432a14610265578063f2fde38b14610285578063f3a2b641146102a5575b600080fd5b3480156100c857600080fd5b506100dc6100d73660046115a3565b6102c5565b6040519081526020015b60405180910390f35b3480156100fb57600080fd5b5061010f61010a3660046115e5565b61035f565b60405190151581526020016100e6565b34801561012b57600080fd5b5061013f61013a3660046116be565b6103af565b005b34801561014d57600080fd5b5061016161015c3660046116f2565b6103f5565b6040516100e69190611767565b34801561017a57600080fd5b5061013f61018936600461180e565b610429565b34801561019a57600080fd5b506101ae6101a93660046118bb565b6106d4565b6040516100e691906119c2565b3480156101c757600080fd5b5061013f6107fd565b3480156101dc57600080fd5b506101e5610876565b6040516100e691906119d5565b3480156101fe57600080fd5b5061013f61020d3660046119e9565b610885565b6100dc610220366004611a27565b61095c565b34801561023157600080fd5b506100dc6102403660046116be565b610b75565b34801561025157600080fd5b5061010f610260366004611ac1565b610bf2565b34801561027157600080fd5b5061013f610280366004611aef565b610cb5565b34801561029157600080fd5b5061013f6102a0366004611b57565b610e65565b3480156102b157600080fd5b506101616102c03660046116f2565b610f55565b60006001600160a01b0383166103365760405162461bcd60e51b815260206004820152602b60248201527f455243313135353a2062616c616e636520717565727920666f7220746865207a60448201526a65726f206164647265737360a81b60648201526084015b60405180910390fd5b506000818152602081815260408083206001600160a01b03861684529091529020545b92915050565b60006001600160e01b03198216636cdb3d1360e11b148061039057506001600160e01b031982166303a24d0760e21b145b8061035957506301ffc9a760e01b6001600160e01b0319831614610359565b336103b8610876565b6001600160a01b0316146103de5760405162461bcd60e51b815260040161032d90611b74565b80516103f19060059060208401906114f2565b5050565b6060600561040283611061565b604051602001610413929190611c00565b6040516020818303038152906040529050919050565b815183511461048b5760405162461bcd60e51b815260206004820152602860248201527f455243313135353a2069647320616e6420616d6f756e7473206c656e677468206044820152670dad2e6dac2e8c6d60c31b606482015260840161032d565b6001600160a01b0384166104b15760405162461bcd60e51b815260040161032d90611ca7565b6001600160a01b0385163314806104cd57506104cd8533610bf2565b6105345760405162461bcd60e51b815260206004820152603260248201527f455243313135353a207472616e736665722063616c6c6572206973206e6f74206044820152711bdddb995c881b9bdc88185c1c1c9bdd995960721b606482015260840161032d565b3360005b845181101561066657600085828151811061055557610555611cec565b60200260200101519050600085838151811061057357610573611cec565b602090810291909101810151600084815280835260408082206001600160a01b038e1683529093529190912054909150818110156105c35760405162461bcd60e51b815260040161032d90611d02565b6105cd8282611d62565b60008085815260200190815260200160002060008c6001600160a01b03166001600160a01b03168152602001908152602001600020819055508160008085815260200190815260200160002060008b6001600160a01b03166001600160a01b03168152602001908152602001600020600082825461064b9190611d79565b925050819055505050508061065f90611d91565b9050610538565b50846001600160a01b0316866001600160a01b0316826001600160a01b03167f4a39dc06d4c0dbc64b70af90fd698a233a518aa5d07e595d983b8c0526c8f7fb87876040516106b6929190611dac565b60405180910390a46106cc81878787878761115e565b505050505050565b606081518351146107395760405162461bcd60e51b815260206004820152602960248201527f455243313135353a206163636f756e747320616e6420696473206c656e677468604482015268040dad2e6dac2e8c6d60bb1b606482015260840161032d565b600083516001600160401b0381111561075457610754611609565b60405190808252806020026020018201604052801561077d578160200160208202803683370190505b50905060005b84518110156107f5576107c88582815181106107a1576107a1611cec565b60200260200101518583815181106107bb576107bb611cec565b60200260200101516102c5565b8282815181106107da576107da611cec565b60209081029190910101526107ee81611d91565b9050610783565b509392505050565b33610806610876565b6001600160a01b03161461082c5760405162461bcd60e51b815260040161032d90611b74565b6003546040516000916001600160a01b0316907f8be0079c531659141344cd1fd0a4f28419497f9722a3daafe3b4186f6b6457e0908390a3600380546001600160a01b0319169055565b6003546001600160a01b031690565b336001600160a01b03831614156108f05760405162461bcd60e51b815260206004820152602960248201527f455243313135353a2073657474696e6720617070726f76616c20737461747573604482015268103337b91039b2b63360b91b606482015260840161032d565b3360008181526001602090815260408083206001600160a01b03871680855290835292819020805460ff191686151590811790915590519081529192917f17307eab39ab6107e8899845ad3d59bd9653f200f220920489ca2b5937696c31910160405180910390a35050565b6000610966610876565b6001600160a01b0316336001600160a01b031614610a1757662386f26fc100003410156109d55760405162461bcd60e51b815260206004820181905260248201527f636c61696d696e67206120746f6b656e20636f7374732031302066696e6e6579604482015260640161032d565b6109dd610876565b6001600160a01b03166108fc349081150290604051600060405180830381858888f19350505050158015610a15573d6000803e3d6000fd5b505b620186a06007541115610a8c5760405162461bcd60e51b815260206004820152603760248201527f416c6c2031306b20746f6b656e732068617665206265656e206d696e7465642060448201527616903a3432b93293b99037379039b837ba103632b33a1760491b606482015260840161032d565b6000610a97856112ba565b6000818152600660205260409020805491925090610ab490611ba9565b159050610aff5760405162461bcd60e51b81526020600482015260196024820152785468697320696420686173206265656e20636c61696d65642160381b604482015260640161032d565b60008585604051602001610b14929190611dd1565b6040516020818303038152906040529050610b3287836001876112eb565b60008281526006602090815260409091208251610b51928401906114f2565b50600160076000828254610b659190611d79565b9091555091979650505050505050565b6000610b80826112ba565b6000818152600660205260409020805491925090610b9d90611ba9565b15159050610bed5760405162461bcd60e51b815260206004820152601f60248201527f54686973206d61726b20686173206e6f74206265656e20636c61696d65642100604482015260640161032d565b919050565b6004805460405163c455279160e01b81526000926001600160a01b0392831692851691839163c455279191610c29918991016119d5565b602060405180830381865afa158015610c46573d6000803e3d6000fd5b505050506040513d601f19601f82011682018060405250810190610c6a9190611e0d565b6001600160a01b03161415610c83576001915050610359565b6001600160a01b0380851660009081526001602090815260408083209387168352929052205460ff165b949350505050565b6001600160a01b038416610cdb5760405162461bcd60e51b815260040161032d90611ca7565b6001600160a01b038516331480610cf75750610cf78533610bf2565b610d555760405162461bcd60e51b815260206004820152602960248201527f455243313135353a2063616c6c6572206973206e6f74206f776e6572206e6f7260448201526808185c1c1c9bdd995960ba1b606482015260840161032d565b33610d75818787610d65886113ec565b610d6e886113ec565b5050505050565b6000848152602081815260408083206001600160a01b038a16845290915290205483811015610db65760405162461bcd60e51b815260040161032d90611d02565b610dc08482611d62565b6000868152602081815260408083206001600160a01b038c81168552925280832093909355881681529081208054869290610dfc908490611d79565b909155505060408051868152602081018690526001600160a01b03808916928a821692918616917fc3d58168c5ae7397731d063d5bbf3d657854427343f4c083240f7aacaa2d0f62910160405180910390a4610e5c828888888888611437565b50505050505050565b33610e6e610876565b6001600160a01b031614610e945760405162461bcd60e51b815260040161032d90611b74565b6001600160a01b038116610ef95760405162461bcd60e51b815260206004820152602660248201527f4f776e61626c653a206e6577206f776e657220697320746865207a65726f206160448201526564647265737360d01b606482015260840161032d565b6003546040516001600160a01b038084169216907f8be0079c531659141344cd1fd0a4f28419497f9722a3daafe3b4186f6b6457e090600090a3600380546001600160a01b0319166001600160a01b0392909216919091179055565b6000818152600660205260409020805460609190610f7290611ba9565b15159050610fc25760405162461bcd60e51b815260206004820152601d60248201527f5468697320696420686173206e6f74206265656e20636c61696d656421000000604482015260640161032d565b60008281526006602052604081208054610fdb90611ba9565b80601f016020809104026020016040519081016040528092919081815260200182805461100790611ba9565b80156110545780601f1061102957610100808354040283529160200191611054565b820191906000526020600020905b81548152906001019060200180831161103757829003601f168201915b5093979650505050505050565b6060816110855750506040805180820190915260018152600360fc1b602082015290565b8160005b81156110af578061109981611d91565b91506110a89050600a83611e40565b9150611089565b6000816001600160401b038111156110c9576110c9611609565b6040519080825280601f01601f1916602001820160405280156110f3576020820181803683370190505b5090505b8415610cad57611108600183611d62565b9150611115600a86611e54565b611120906030611d79565b60f81b81838151811061113557611135611cec565b60200101906001600160f81b031916908160001a905350611157600a86611e40565b94506110f7565b6001600160a01b0384163b156106cc5760405163bc197c8160e01b81526001600160a01b0385169063bc197c81906111a29089908990889088908890600401611e68565b6020604051808303816000875af19250505080156111dd575060408051601f3d908101601f191682019092526111da91810190611ec6565b60015b61128a576111e9611ee3565b806308c379a0141561122357506111fe611eff565b806112095750611225565b8060405162461bcd60e51b815260040161032d9190611767565b505b60405162461bcd60e51b815260206004820152603460248201527f455243313135353a207472616e7366657220746f206e6f6e20455243313135356044820152732932b1b2b4bb32b91034b6b83632b6b2b73a32b960611b606482015260840161032d565b6001600160e01b0319811663bc197c8160e01b14610e5c5760405162461bcd60e51b815260040161032d90611f88565b6000816040516020016112cd9190611767565b60408051601f19818403018152919052805160209091012092915050565b6001600160a01b03841661134b5760405162461bcd60e51b815260206004820152602160248201527f455243313135353a206d696e7420746f20746865207a65726f206164647265736044820152607360f81b606482015260840161032d565b3361135c81600087610d65886113ec565b6000848152602081815260408083206001600160a01b03891684529091528120805485929061138c908490611d79565b909155505060408051858152602081018590526001600160a01b0380881692600092918516917fc3d58168c5ae7397731d063d5bbf3d657854427343f4c083240f7aacaa2d0f62910160405180910390a4610d6e81600087878787611437565b6040805160018082528183019092526060916000919060208083019080368337019050509050828160008151811061142657611426611cec565b602090810291909101015292915050565b6001600160a01b0384163b156106cc5760405163f23a6e6160e01b81526001600160a01b0385169063f23a6e619061147b9089908990889088908890600401611fd0565b6020604051808303816000875af19250505080156114b6575060408051601f3d908101601f191682019092526114b391810190611ec6565b60015b6114c2576111e9611ee3565b6001600160e01b0319811663f23a6e6160e01b14610e5c5760405162461bcd60e51b815260040161032d90611f88565b8280546114fe90611ba9565b90600052602060002090601f0160209004810192826115205760008555611566565b82601f1061153957805160ff1916838001178555611566565b82800160010185558215611566579182015b8281111561156657825182559160200191906001019061154b565b50611572929150611576565b5090565b5b808211156115725760008155600101611577565b6001600160a01b03811681146115a057600080fd5b50565b600080604083850312156115b657600080fd5b82356115c18161158b565b946020939093013593505050565b6001600160e01b0319811681146115a057600080fd5b6000602082840312156115f757600080fd5b8135611602816115cf565b9392505050565b634e487b7160e01b600052604160045260246000fd5b601f8201601f191681016001600160401b038111828210171561164457611644611609565b6040525050565b600082601f83011261165c57600080fd5b81356001600160401b0381111561167557611675611609565b60405161168c601f8301601f19166020018261161f565b8181528460208386010111156116a157600080fd5b816020850160208301376000918101602001919091529392505050565b6000602082840312156116d057600080fd5b81356001600160401b038111156116e657600080fd5b610cad8482850161164b565b60006020828403121561170457600080fd5b5035919050565b60005b8381101561172657818101518382015260200161170e565b83811115611735576000848401525b50505050565b6000815180845261175381602086016020860161170b565b601f01601f19169290920160200192915050565b602081526000611602602083018461173b565b60006001600160401b0382111561179357611793611609565b5060051b60200190565b600082601f8301126117ae57600080fd5b813560206117bb8261177a565b6040516117c8828261161f565b83815260059390931b85018201928281019150868411156117e857600080fd5b8286015b8481101561180357803583529183019183016117ec565b509695505050505050565b600080600080600060a0868803121561182657600080fd5b85356118318161158b565b945060208601356118418161158b565b935060408601356001600160401b038082111561185d57600080fd5b61186989838a0161179d565b9450606088013591508082111561187f57600080fd5b61188b89838a0161179d565b935060808801359150808211156118a157600080fd5b506118ae8882890161164b565b9150509295509295909350565b600080604083850312156118ce57600080fd5b82356001600160401b03808211156118e557600080fd5b818501915085601f8301126118f957600080fd5b813560206119068261177a565b604051611913828261161f565b83815260059390931b850182019282810191508984111561193357600080fd5b948201945b8386101561195a57853561194b8161158b565b82529482019490820190611938565b9650508601359250508082111561197057600080fd5b5061197d8582860161179d565b9150509250929050565b600081518084526020808501945080840160005b838110156119b75781518752958201959082019060010161199b565b509495945050505050565b6020815260006116026020830184611987565b6001600160a01b0391909116815260200190565b600080604083850312156119fc57600080fd5b8235611a078161158b565b915060208301358015158114611a1c57600080fd5b809150509250929050565b60008060008060808587031215611a3d57600080fd5b8435611a488161158b565b935060208501356001600160401b0380821115611a6457600080fd5b611a708883890161164b565b94506040870135915080821115611a8657600080fd5b611a928883890161164b565b93506060870135915080821115611aa857600080fd5b50611ab58782880161164b565b91505092959194509250565b60008060408385031215611ad457600080fd5b8235611adf8161158b565b91506020830135611a1c8161158b565b600080600080600060a08688031215611b0757600080fd5b8535611b128161158b565b94506020860135611b228161158b565b9350604086013592506060860135915060808601356001600160401b03811115611b4b57600080fd5b6118ae8882890161164b565b600060208284031215611b6957600080fd5b81356116028161158b565b6020808252818101527f4f776e61626c653a2063616c6c6572206973206e6f7420746865206f776e6572604082015260600190565b600181811c90821680611bbd57607f821691505b60208210811415611bde57634e487b7160e01b600052602260045260246000fd5b50919050565b60008151611bf681856020860161170b565b9290920192915050565b600080845481600182811c915080831680611c1c57607f831692505b6020808410821415611c3c57634e487b7160e01b86526022600452602486fd5b818015611c505760018114611c6157611c8e565b60ff19861689528489019650611c8e565b60008b81526020902060005b86811015611c865781548b820152908501908301611c6d565b505084890196505b505050505050611c9e8185611be4565b95945050505050565b60208082526025908201527f455243313135353a207472616e7366657220746f20746865207a65726f206164604082015264647265737360d81b606082015260800190565b634e487b7160e01b600052603260045260246000fd5b6020808252602a908201527f455243313135353a20696e73756666696369656e742062616c616e636520666f60408201526939103a3930b739b332b960b11b606082015260800190565b634e487b7160e01b600052601160045260246000fd5b600082821015611d7457611d74611d4c565b500390565b60008219821115611d8c57611d8c611d4c565b500190565b6000600019821415611da557611da5611d4c565b5060010190565b604081526000611dbf6040830185611987565b8281036020840152611c9e8185611987565b60008351611de381846020880161170b565b601d60f91b9083019081528351611e0181600184016020880161170b565b01600101949350505050565b600060208284031215611e1f57600080fd5b81516116028161158b565b634e487b7160e01b600052601260045260246000fd5b600082611e4f57611e4f611e2a565b500490565b600082611e6357611e63611e2a565b500690565b6001600160a01b0386811682528516602082015260a060408201819052600090611e9490830186611987565b8281036060840152611ea68186611987565b90508281036080840152611eba818561173b565b98975050505050505050565b600060208284031215611ed857600080fd5b8151611602816115cf565b600060033d1115611efc5760046000803e5060005160e01c5b90565b600060443d1015611f0d5790565b6040516003193d81016004833e81513d6001600160401b038160248401118184111715611f3c57505050505090565b8285019150815181811115611f545750505050505090565b843d8701016020828501011115611f6e5750505050505090565b611f7d6020828601018761161f565b509095945050505050565b60208082526028908201527f455243313135353a204552433131353552656365697665722072656a656374656040820152676420746f6b656e7360c01b606082015260800190565b6001600160a01b03868116825285166020820152604081018490526060810183905260a06080820181905260009061200a9083018461173b565b97965050505050505056fea26469706673582212207f10bff409f298f077868ee221ee34f72a6b3df0b1bb940434de1051bc3d6a7364736f6c634300080b003368747470733a2f2f6c656176652d612d6d61726b2d696e2d6d6574612e6865726f6b756170702e636f6d2f6170692f746f6b656e2f",
  "immutableReferences": {},
  "source": "// SPDX-License-Identifier: MIT\n\npragma solidity ^0.8.0;\n\nimport \"openzeppelin-solidity/contracts/access/Ownable.sol\";\nimport \"openzeppelin-solidity/contracts/token/ERC1155/ERC1155.sol\";\nimport \"openzeppelin-solidity/contracts/utils/Strings.sol\";\n\ncontract OwnableDelegateProxy { }\n\ncontract ProxyRegistry {\n  mapping(address => OwnableDelegateProxy) public proxies;\n}\n\ncontract LastWord is ERC1155, Ownable {\n    address proxyRegistryAddress;\n    string baseUri = \"https://leave-a-mark-in-meta.herokuapp.com/api/token/\";\n    mapping(uint256 => string) id_to_mark;\n    uint256 mintedWords = 0;\n    uint256 constant MAX_NUM_WORDS = 100000;\n\n    constructor(\n        address _proxyRegistryAddress\n    ) ERC1155(baseUri) {\n        proxyRegistryAddress = _proxyRegistryAddress;\n    }\n\n    function mint(\n        address _to,\n        string memory _name,\n        string memory _word,\n        bytes memory _data\n    ) external payable returns(uint256){\n        if (msg.sender != owner()) {\n            require(msg.value >= 0.01 ether, \"claiming a token costs 10 finney\");\n            payable(owner()).transfer(msg.value);\n        }\n        require(mintedWords <= MAX_NUM_WORDS, \"All 10k tokens have been minted - there's no spot left.\");\n        \n        // Generate an id according to the mark\n        uint256 tokenId = id(_name);\n        require(bytes(id_to_mark[tokenId]).length == 0, \"This id has been claimed!\");\n\n        string memory _theMark = string(\n            abi.encodePacked(_name, \":\", _word)\n        );\n        \n        _mint(_to, tokenId, 1, _data);\n        id_to_mark[tokenId] = _theMark;\n        mintedWords += 1;\n        return tokenId;\n    }\n\n    function id(string memory name) internal pure returns(uint256) {\n        // Psudo random id generator\n        return uint256(keccak256(abi.encode(name)));\n    }\n\n    function get_mark(uint256 tokenId) external view returns (string memory mark) {\n        require(bytes(id_to_mark[tokenId]).length != 0, \"This id has not been claimed!\");\n        string memory theMark = id_to_mark[tokenId];\n        return theMark;\n    }\n\n    function get_id(string memory name) external view returns (uint256 id_of_mark) {\n        id_of_mark = id(name);\n        require(bytes(id_to_mark[id_of_mark]).length != 0, \"This mark has not been claimed!\");\n        return id_of_mark;\n    }\n\n    function uri(\n        uint256 _id\n    ) override public view returns (string memory) {\n        // We have to convert string to bytes to check for existence\n        return string(\n            abi.encodePacked(baseUri, Strings.toString(_id))\n        );\n    }\n\n    function setURI(\n        string memory _newURI\n    ) public onlyOwner {\n        baseUri = _newURI;\n    }\n\n    /**\n   * Override isApprovedForAll to whitelist user's OpenSea proxy accounts to enable gas-free listings.\n   */\n    function isApprovedForAll(\n        address _owner,\n        address _operator\n    ) override public view returns (bool isOperator) {\n        // Whitelist OpenSea proxy contract for easy trading.\n        ProxyRegistry proxyRegistry = ProxyRegistry(proxyRegistryAddress);\n        if (address(proxyRegistry.proxies(_owner)) == _operator) {\n        return true;\n        }\n\n        return ERC1155.isApprovedForAll(_owner, _operator);\n    }\n}\n",
  "sourcePath": "/Users/liyuxian/Documents/lastword1155/contracts/LastWord.sol",
  "compiler": {
    "name": "solc",
    "version": "0.8.11+commit.d7f03943.Emscripten.clang"
  },
  "schemaVersion": "3.4.3",
  "updatedAt": "2022-01-27T05:58:04.363Z",
  "devdoc": {
    "kind": "dev",
    "methods": {
      "balanceOf(address,uint256)": {
        "details": "See {IERC1155-balanceOf}. Requirements: - `account` cannot be the zero address."
      },
      "balanceOfBatch(address[],uint256[])": {
        "details": "See {IERC1155-balanceOfBatch}. Requirements: - `accounts` and `ids` must have the same length."
      },
      "owner()": {
        "details": "Returns the address of the current owner."
      },
      "renounceOwnership()": {
        "details": "Leaves the contract without owner. It will not be possible to call `onlyOwner` functions anymore. Can only be called by the current owner. NOTE: Renouncing ownership will leave the contract without an owner, thereby removing any functionality that is only available to the owner."
      },
      "safeBatchTransferFrom(address,address,uint256[],uint256[],bytes)": {
        "details": "See {IERC1155-safeBatchTransferFrom}."
      },
      "safeTransferFrom(address,address,uint256,uint256,bytes)": {
        "details": "See {IERC1155-safeTransferFrom}."
      },
      "setApprovalForAll(address,bool)": {
        "details": "See {IERC1155-setApprovalForAll}."
      },
      "supportsInterface(bytes4)": {
        "details": "See {IERC165-supportsInterface}."
      },
      "transferOwnership(address)": {
        "details": "Transfers ownership of the contract to a new account (`newOwner`). Can only be called by the current owner."
      }
    },
    "version": 1
  },
  "userdoc": {
    "kind": "user",
    "methods": {
      "isApprovedForAll(address,address)": {
        "notice": "Override isApprovedForAll to whitelist user's OpenSea proxy accounts to enable gas-free listings."
      }
    },
    "version": 1
  }
}