{
    "contractName": "LeaveAMark",
    "abi": [
        {
            "inputs": [
                {
                    "internalType": "address",
                    "name": "_proxyRegistryAddress",
                    "type": "address"
                }
            ],
            "stateMutability": "nonpayable",
            "type": "constructor"
        },
        {
            "anonymous": false,
            "inputs": [
                {
                    "indexed": true,
                    "internalType": "address",
                    "name": "owner",
                    "type": "address"
                },
                {
                    "indexed": true,
                    "internalType": "address",
                    "name": "approved",
                    "type": "address"
                },
                {
                    "indexed": true,
                    "internalType": "uint256",
                    "name": "tokenId",
                    "type": "uint256"
                }
            ],
            "name": "Approval",
            "type": "event"
        },
        {
            "anonymous": false,
            "inputs": [
                {
                    "indexed": true,
                    "internalType": "address",
                    "name": "owner",
                    "type": "address"
                },
                {
                    "indexed": true,
                    "internalType": "address",
                    "name": "operator",
                    "type": "address"
                },
                {
                    "indexed": false,
                    "internalType": "bool",
                    "name": "approved",
                    "type": "bool"
                }
            ],
            "name": "ApprovalForAll",
            "type": "event"
        },
        {
            "anonymous": false,
            "inputs": [
                {
                    "indexed": false,
                    "internalType": "address",
                    "name": "userAddress",
                    "type": "address"
                },
                {
                    "indexed": false,
                    "internalType": "address payable",
                    "name": "relayerAddress",
                    "type": "address"
                },
                {
                    "indexed": false,
                    "internalType": "bytes",
                    "name": "functionSignature",
                    "type": "bytes"
                }
            ],
            "name": "MetaTransactionExecuted",
            "type": "event"
        },
        {
            "anonymous": false,
            "inputs": [
                {
                    "indexed": true,
                    "internalType": "address",
                    "name": "previousOwner",
                    "type": "address"
                },
                {
                    "indexed": true,
                    "internalType": "address",
                    "name": "newOwner",
                    "type": "address"
                }
            ],
            "name": "OwnershipTransferred",
            "type": "event"
        },
        {
            "anonymous": false,
            "inputs": [
                {
                    "indexed": true,
                    "internalType": "address",
                    "name": "from",
                    "type": "address"
                },
                {
                    "indexed": true,
                    "internalType": "address",
                    "name": "to",
                    "type": "address"
                },
                {
                    "indexed": true,
                    "internalType": "uint256",
                    "name": "tokenId",
                    "type": "uint256"
                }
            ],
            "name": "Transfer",
            "type": "event"
        },
        {
            "inputs": [],
            "name": "ERC712_VERSION",
            "outputs": [
                {
                    "internalType": "string",
                    "name": "",
                    "type": "string"
                }
            ],
            "stateMutability": "view",
            "type": "function",
            "constant": true
        },
        {
            "inputs": [
                {
                    "internalType": "address",
                    "name": "to",
                    "type": "address"
                },
                {
                    "internalType": "uint256",
                    "name": "tokenId",
                    "type": "uint256"
                }
            ],
            "name": "approve",
            "outputs": [],
            "stateMutability": "nonpayable",
            "type": "function"
        },
        {
            "inputs": [
                {
                    "internalType": "address",
                    "name": "owner",
                    "type": "address"
                }
            ],
            "name": "balanceOf",
            "outputs": [
                {
                    "internalType": "uint256",
                    "name": "",
                    "type": "uint256"
                }
            ],
            "stateMutability": "view",
            "type": "function",
            "constant": true
        },
        {
            "inputs": [
                {
                    "internalType": "address",
                    "name": "userAddress",
                    "type": "address"
                },
                {
                    "internalType": "bytes",
                    "name": "functionSignature",
                    "type": "bytes"
                },
                {
                    "internalType": "bytes32",
                    "name": "sigR",
                    "type": "bytes32"
                },
                {
                    "internalType": "bytes32",
                    "name": "sigS",
                    "type": "bytes32"
                },
                {
                    "internalType": "uint8",
                    "name": "sigV",
                    "type": "uint8"
                }
            ],
            "name": "executeMetaTransaction",
            "outputs": [
                {
                    "internalType": "bytes",
                    "name": "",
                    "type": "bytes"
                }
            ],
            "stateMutability": "payable",
            "type": "function",
            "payable": true
        },
        {
            "inputs": [
                {
                    "internalType": "uint256",
                    "name": "tokenId",
                    "type": "uint256"
                }
            ],
            "name": "getApproved",
            "outputs": [
                {
                    "internalType": "address",
                    "name": "",
                    "type": "address"
                }
            ],
            "stateMutability": "view",
            "type": "function",
            "constant": true
        },
        {
            "inputs": [],
            "name": "getChainId",
            "outputs": [
                {
                    "internalType": "uint256",
                    "name": "",
                    "type": "uint256"
                }
            ],
            "stateMutability": "view",
            "type": "function",
            "constant": true
        },
        {
            "inputs": [],
            "name": "getDomainSeperator",
            "outputs": [
                {
                    "internalType": "bytes32",
                    "name": "",
                    "type": "bytes32"
                }
            ],
            "stateMutability": "view",
            "type": "function",
            "constant": true
        },
        {
            "inputs": [
                {
                    "internalType": "address",
                    "name": "user",
                    "type": "address"
                }
            ],
            "name": "getNonce",
            "outputs": [
                {
                    "internalType": "uint256",
                    "name": "nonce",
                    "type": "uint256"
                }
            ],
            "stateMutability": "view",
            "type": "function",
            "constant": true
        },
        {
            "inputs": [
                {
                    "internalType": "address",
                    "name": "owner",
                    "type": "address"
                },
                {
                    "internalType": "address",
                    "name": "operator",
                    "type": "address"
                }
            ],
            "name": "isApprovedForAll",
            "outputs": [
                {
                    "internalType": "bool",
                    "name": "",
                    "type": "bool"
                }
            ],
            "stateMutability": "view",
            "type": "function",
            "constant": true
        },
        {
            "inputs": [],
            "name": "name",
            "outputs": [
                {
                    "internalType": "string",
                    "name": "",
                    "type": "string"
                }
            ],
            "stateMutability": "view",
            "type": "function",
            "constant": true
        },
        {
            "inputs": [],
            "name": "owner",
            "outputs": [
                {
                    "internalType": "address",
                    "name": "",
                    "type": "address"
                }
            ],
            "stateMutability": "view",
            "type": "function",
            "constant": true
        },
        {
            "inputs": [
                {
                    "internalType": "uint256",
                    "name": "tokenId",
                    "type": "uint256"
                }
            ],
            "name": "ownerOf",
            "outputs": [
                {
                    "internalType": "address",
                    "name": "",
                    "type": "address"
                }
            ],
            "stateMutability": "view",
            "type": "function",
            "constant": true
        },
        {
            "inputs": [],
            "name": "renounceOwnership",
            "outputs": [],
            "stateMutability": "nonpayable",
            "type": "function"
        },
        {
            "inputs": [
                {
                    "internalType": "address",
                    "name": "from",
                    "type": "address"
                },
                {
                    "internalType": "address",
                    "name": "to",
                    "type": "address"
                },
                {
                    "internalType": "uint256",
                    "name": "tokenId",
                    "type": "uint256"
                }
            ],
            "name": "safeTransferFrom",
            "outputs": [],
            "stateMutability": "nonpayable",
            "type": "function"
        },
        {
            "inputs": [
                {
                    "internalType": "address",
                    "name": "from",
                    "type": "address"
                },
                {
                    "internalType": "address",
                    "name": "to",
                    "type": "address"
                },
                {
                    "internalType": "uint256",
                    "name": "tokenId",
                    "type": "uint256"
                },
                {
                    "internalType": "bytes",
                    "name": "_data",
                    "type": "bytes"
                }
            ],
            "name": "safeTransferFrom",
            "outputs": [],
            "stateMutability": "nonpayable",
            "type": "function"
        },
        {
            "inputs": [
                {
                    "internalType": "address",
                    "name": "operator",
                    "type": "address"
                },
                {
                    "internalType": "bool",
                    "name": "approved",
                    "type": "bool"
                }
            ],
            "name": "setApprovalForAll",
            "outputs": [],
            "stateMutability": "nonpayable",
            "type": "function"
        },
        {
            "inputs": [
                {
                    "internalType": "bytes4",
                    "name": "interfaceId",
                    "type": "bytes4"
                }
            ],
            "name": "supportsInterface",
            "outputs": [
                {
                    "internalType": "bool",
                    "name": "",
                    "type": "bool"
                }
            ],
            "stateMutability": "view",
            "type": "function",
            "constant": true
        },
        {
            "inputs": [],
            "name": "symbol",
            "outputs": [
                {
                    "internalType": "string",
                    "name": "",
                    "type": "string"
                }
            ],
            "stateMutability": "view",
            "type": "function",
            "constant": true
        },
        {
            "inputs": [
                {
                    "internalType": "uint256",
                    "name": "index",
                    "type": "uint256"
                }
            ],
            "name": "tokenByIndex",
            "outputs": [
                {
                    "internalType": "uint256",
                    "name": "",
                    "type": "uint256"
                }
            ],
            "stateMutability": "view",
            "type": "function",
            "constant": true
        },
        {
            "inputs": [
                {
                    "internalType": "address",
                    "name": "owner",
                    "type": "address"
                },
                {
                    "internalType": "uint256",
                    "name": "index",
                    "type": "uint256"
                }
            ],
            "name": "tokenOfOwnerByIndex",
            "outputs": [
                {
                    "internalType": "uint256",
                    "name": "",
                    "type": "uint256"
                }
            ],
            "stateMutability": "view",
            "type": "function",
            "constant": true
        },
        {
            "inputs": [
                {
                    "internalType": "uint256",
                    "name": "_tokenId",
                    "type": "uint256"
                }
            ],
            "name": "tokenURI",
            "outputs": [
                {
                    "internalType": "string",
                    "name": "",
                    "type": "string"
                }
            ],
            "stateMutability": "view",
            "type": "function",
            "constant": true
        },
        {
            "inputs": [],
            "name": "totalSupply",
            "outputs": [
                {
                    "internalType": "uint256",
                    "name": "",
                    "type": "uint256"
                }
            ],
            "stateMutability": "view",
            "type": "function",
            "constant": true
        },
        {
            "inputs": [
                {
                    "internalType": "address",
                    "name": "from",
                    "type": "address"
                },
                {
                    "internalType": "address",
                    "name": "to",
                    "type": "address"
                },
                {
                    "internalType": "uint256",
                    "name": "tokenId",
                    "type": "uint256"
                }
            ],
            "name": "transferFrom",
            "outputs": [],
            "stateMutability": "nonpayable",
            "type": "function"
        },
        {
            "inputs": [
                {
                    "internalType": "address",
                    "name": "newOwner",
                    "type": "address"
                }
            ],
            "name": "transferOwnership",
            "outputs": [],
            "stateMutability": "nonpayable",
            "type": "function"
        },
        {
            "inputs": [
                {
                    "internalType": "string",
                    "name": "baseURI",
                    "type": "string"
                }
            ],
            "name": "setBaseURI",
            "outputs": [],
            "stateMutability": "nonpayable",
            "type": "function"
        },
        {
            "inputs": [],
            "name": "baseTokenURI",
            "outputs": [
                {
                    "internalType": "string",
                    "name": "",
                    "type": "string"
                }
            ],
            "stateMutability": "view",
            "type": "function",
            "constant": true
        },
        {
            "inputs": [
                {
                    "internalType": "string",
                    "name": "name",
                    "type": "string"
                },
                {
                    "internalType": "string",
                    "name": "value",
                    "type": "string"
                }
            ],
            "name": "mint",
            "outputs": [
                {
                    "internalType": "uint256",
                    "name": "",
                    "type": "uint256"
                }
            ],
            "stateMutability": "nonpayable",
            "type": "function"
        },
        {
            "inputs": [
                {
                    "internalType": "uint256",
                    "name": "tokenId",
                    "type": "uint256"
                }
            ],
            "name": "get_mark",
            "outputs": [
                {
                    "internalType": "string",
                    "name": "name",
                    "type": "string"
                },
                {
                    "internalType": "string",
                    "name": "value",
                    "type": "string"
                }
            ],
            "stateMutability": "view",
            "type": "function",
            "constant": true
        },
        {
            "inputs": [
                {
                    "internalType": "string",
                    "name": "name",
                    "type": "string"
                }
            ],
            "name": "get_id",
            "outputs": [
                {
                    "internalType": "uint256",
                    "name": "id_of_mark",
                    "type": "uint256"
                }
            ],
            "stateMutability": "view",
            "type": "function",
            "constant": true
        }
    ],
    "bytecode": "0x6080604052600a805460ff191690556000600f553480156200002057600080fd5b5060405162002dc238038062002dc2833981016040819052620000439162000429565b6040518060400160405280600a8152602001694c65617665414d61726b60b01b815250604051806040016040528060038152602001624c414d60e81b81525082828281600090805190602001906200009d92919062000383565b508051620000b390600190602084019062000383565b5050506000620000c86200016a60201b60201c565b600d80546001600160a01b0319166001600160a01b038316908117909155604051919250906000907f8be0079c531659141344cd1fd0a4f28419497f9722a3daafe3b4186f6b6457e0908290a350600e80546001600160a01b0319166001600160a01b0383161790556200013c8362000186565b5050506200016360405180606001604052806035815260200162002d8d60359139620001eb565b5062000498565b6000620001816200028260201b620014771760201c565b905090565b600a5460ff1615620001d05760405162461bcd60e51b815260206004820152600e60248201526d185b1c9958591e481a5b9a5d195960921b60448201526064015b60405180910390fd5b620001db81620002e1565b50600a805460ff19166001179055565b620001f56200016a565b6001600160a01b031662000211600d546001600160a01b031690565b6001600160a01b031614620002695760405162461bcd60e51b815260206004820181905260248201527f4f776e61626c653a2063616c6c6572206973206e6f7420746865206f776e65726044820152606401620001c7565b80516200027e90601290602084019062000383565b5050565b600033301415620002db57600080368080601f0160208091040260200160405190810160405280939291908181526020018383808284376000920191909152505050503601516001600160a01b03169150620002de9050565b50335b90565b6040518060800160405280604f815260200162002d3e604f9139805160209182012082519282019290922060408051808201825260018152603160f81b90840152805180840194909452838101919091527fc89efdaa54c0f20c7adf612882df0950f5a951637e0307cdcb4c672f298b8bc660608401523060808401524660a0808501919091528151808503909101815260c090930190528151910120600b55565b82805462000391906200045b565b90600052602060002090601f016020900481019282620003b5576000855562000400565b82601f10620003d057805160ff191683800117855562000400565b8280016001018555821562000400579182015b8281111562000400578251825591602001919060010190620003e3565b506200040e92915062000412565b5090565b5b808211156200040e576000815560010162000413565b6000602082840312156200043c57600080fd5b81516001600160a01b03811681146200045457600080fd5b9392505050565b600181811c908216806200047057607f821691505b602082108114156200049257634e487b7160e01b600052602260045260246000fd5b50919050565b61289680620004a86000396000f3fe6080604052600436106101525760003560e01c806301ffc9a71461015757806306fdde031461018c578063081812fc146101ae578063095ea7b3146101db5780630c53c51c146101fd5780630f7e59701461021057806318160ddd1461023d57806320379ee51461025c57806323b872dd146102715780632d0335ab146102915780632f745c59146102c75780633408e470146102e757806342842e0e146102fa5780634f6ccce71461031a57806355f804b31461033a5780636352211e1461035a57806370a082311461037a578063715018a61461039a5780638aa0fdad146103af5780638da5cb5b146103cf57806395d89b41146103e4578063a22cb465146103f9578063b88d4fde14610419578063c87b56dd14610439578063d4e2e57914610459578063d547cfb714610479578063e985e9c51461048e578063f2fde38b146104ae578063f3a2b641146104ce575b600080fd5b34801561016357600080fd5b506101776101723660046120d5565b6104fc565b60405190151581526020015b60405180910390f35b34801561019857600080fd5b506101a1610527565b604051610183919061214a565b3480156101ba57600080fd5b506101ce6101c936600461215d565b6105b9565b6040516101839190612176565b3480156101e757600080fd5b506101fb6101f636600461219f565b610646565b005b6101a161020b36600461226d565b610769565b34801561021c57600080fd5b506101a1604051806040016040528060018152602001603160f81b81525081565b34801561024957600080fd5b506008545b604051908152602001610183565b34801561026857600080fd5b50600b5461024e565b34801561027d57600080fd5b506101fb61028c3660046122ea565b610952565b34801561029d57600080fd5b5061024e6102ac36600461232b565b6001600160a01b03166000908152600c602052604090205490565b3480156102d357600080fd5b5061024e6102e236600461219f565b61098a565b3480156102f357600080fd5b504661024e565b34801561030657600080fd5b506101fb6103153660046122ea565b610a20565b34801561032657600080fd5b5061024e61033536600461215d565b610a3b565b34801561034657600080fd5b506101fb610355366004612348565b610ace565b34801561036657600080fd5b506101ce61037536600461215d565b610b24565b34801561038657600080fd5b5061024e61039536600461232b565b610b9b565b3480156103a657600080fd5b506101fb610c22565b3480156103bb57600080fd5b5061024e6103ca36600461237c565b610cab565b3480156103db57600080fd5b506101ce610eeb565b3480156103f057600080fd5b506101a1610efa565b34801561040557600080fd5b506101fb6104143660046123df565b610f09565b34801561042557600080fd5b506101fb61043436600461241d565b611007565b34801561044557600080fd5b506101a161045436600461215d565b611046565b34801561046557600080fd5b5061024e610474366004612348565b611080565b34801561048557600080fd5b506101a16110f9565b34801561049a57600080fd5b506101776104a9366004612488565b611108565b3480156104ba57600080fd5b506101fb6104c936600461232b565b6111dc565b3480156104da57600080fd5b506104ee6104e936600461215d565b6112dc565b6040516101839291906124b6565b60006001600160e01b0319821663780e9d6360e01b14806105215750610521826114d4565b92915050565b606060008054610536906124e4565b80601f0160208091040260200160405190810160405280929190818152602001828054610562906124e4565b80156105af5780601f10610584576101008083540402835291602001916105af565b820191906000526020600020905b81548152906001019060200180831161059257829003601f168201915b5050505050905090565b60006105c482611524565b61062a5760405162461bcd60e51b815260206004820152602c60248201527f4552433732313a20617070726f76656420717565727920666f72206e6f6e657860448201526b34b9ba32b73a103a37b5b2b760a11b60648201526084015b60405180910390fd5b506000908152600460205260409020546001600160a01b031690565b600061065182610b24565b9050806001600160a01b0316836001600160a01b031614156106bf5760405162461bcd60e51b815260206004820152602160248201527f4552433732313a20617070726f76616c20746f2063757272656e74206f776e656044820152603960f91b6064820152608401610621565b806001600160a01b03166106d1611541565b6001600160a01b031614806106ed57506106ed816104a9611541565b61075a5760405162461bcd60e51b815260206004820152603860248201527f4552433732313a20617070726f76652063616c6c6572206973206e6f74206f776044820152771b995c881b9bdc88185c1c1c9bdd995908199bdc88185b1b60421b6064820152608401610621565b6107648383611550565b505050565b60408051606081810183526001600160a01b0388166000818152600c6020908152908590205484528301529181018690526107a787828787876115be565b6107fd5760405162461bcd60e51b815260206004820152602160248201527f5369676e657220616e64207369676e617475726520646f206e6f74206d6174636044820152600d60fb1b6064820152608401610621565b6001600160a01b0387166000908152600c60205260409020546108219060016116ae565b6001600160a01b0388166000908152600c60205260409081902091909155517f5845892132946850460bff5a0083f71031bc5bf9aadcd40f1de79423eac9b10b9061087190899033908a9061251f565b60405180910390a1600080306001600160a01b0316888a60405160200161089992919061254b565b60408051601f19818403018152908290526108b39161257d565b6000604051808303816000865af19150503d80600081146108f0576040519150601f19603f3d011682016040523d82523d6000602084013e6108f5565b606091505b5091509150816109465760405162461bcd60e51b815260206004820152601c60248201527b119d5b98dd1a5bdb8818d85b1b081b9bdd081cdd58d8d95cdcd99d5b60221b6044820152606401610621565b98975050505050505050565b61096361095d611541565b826116ba565b61097f5760405162461bcd60e51b815260040161062190612599565b61076483838361177c565b600061099583610b9b565b82106109f75760405162461bcd60e51b815260206004820152602b60248201527f455243373231456e756d657261626c653a206f776e657220696e646578206f7560448201526a74206f6620626f756e647360a81b6064820152608401610621565b506001600160a01b03919091166000908152600660209081526040808320938352929052205490565b61076483838360405180602001604052806000815250611007565b6000610a4660085490565b8210610aa95760405162461bcd60e51b815260206004820152602c60248201527f455243373231456e756d657261626c653a20676c6f62616c20696e646578206f60448201526b7574206f6620626f756e647360a01b6064820152608401610621565b60088281548110610abc57610abc6125ea565b90600052602060002001549050919050565b610ad6611541565b6001600160a01b0316610ae7610eeb565b6001600160a01b031614610b0d5760405162461bcd60e51b815260040161062190612600565b8051610b20906012906020840190612023565b5050565b6000818152600260205260408120546001600160a01b0316806105215760405162461bcd60e51b815260206004820152602960248201527f4552433732313a206f776e657220717565727920666f72206e6f6e657869737460448201526832b73a103a37b5b2b760b91b6064820152608401610621565b60006001600160a01b038216610c065760405162461bcd60e51b815260206004820152602a60248201527f4552433732313a2062616c616e636520717565727920666f7220746865207a65604482015269726f206164647265737360b01b6064820152608401610621565b506001600160a01b031660009081526003602052604090205490565b610c2a611541565b6001600160a01b0316610c3b610eeb565b6001600160a01b031614610c615760405162461bcd60e51b815260040161062190612600565b600d546040516000916001600160a01b0316907f8be0079c531659141344cd1fd0a4f28419497f9722a3daafe3b4186f6b6457e0908390a3600d80546001600160a01b0319169055565b6000610cb5611541565b6001600160a01b0316610cc6610eeb565b6001600160a01b031614610cec5760405162461bcd60e51b815260040161062190612600565b6000835111610d3a5760405162461bcd60e51b815260206004820152601a602482015279546865206e616d65206d757374206e6f7420626520656d70747960301b6044820152606401610621565b6000825111610d895760405162461bcd60e51b815260206004820152601b60248201527a5468652076616c7565206d757374206e6f7420626520656d70747960281b6044820152606401610621565b6019835110610dee5760405162461bcd60e51b815260206004820152602b60248201527f546865206e616d65206d7573742062652073686f72746572207468616e20323560448201526a206368617261637465727360a81b6064820152608401610621565b601183604051610dfe919061257d565b908152602001604051809103902054600014610e565760405162461bcd60e51b81526020600482015260176024820152762a3432903730b6b2903430b9903132b2b7103a30b5b2b760491b6044820152606401610621565b6000610e628484611927565b6040805180820182528681526020808201879052600084815260108252929092208151805194955091939092610e9c928492910190612023565b506020828101518051610eb59260018501920190612023565b5090505080601185604051610eca919061257d565b90815260405190819003602001902055610ee4338261195f565b9392505050565b600d546001600160a01b031690565b606060018054610536906124e4565b610f11611541565b6001600160a01b0316826001600160a01b03161415610f6e5760405162461bcd60e51b815260206004820152601960248201527822a9219b99189d1030b8383937bb32903a379031b0b63632b960391b6044820152606401610621565b8060056000610f7b611541565b6001600160a01b03908116825260208083019390935260409182016000908120918716808252919093529120805460ff191692151592909217909155610fbf611541565b6001600160a01b03167f17307eab39ab6107e8899845ad3d59bd9653f200f220920489ca2b5937696c3183604051610ffb911515815260200190565b60405180910390a35050565b611018611012611541565b836116ba565b6110345760405162461bcd60e51b815260040161062190612599565b61104084848484611979565b50505050565b60606110506110f9565b611059836119ac565b60405160200161106a929190612635565b6040516020818303038152906040529050919050565b6000601182604051611092919061257d565b908152602001604051809103902054905080600014156110f45760405162461bcd60e51b815260206004820152601e60248201527f54686973206e616d6520686173206e6f74206265656e20636c61696d656400006044820152606401610621565b919050565b606060128054610536906124e4565b600e5460405163c455279160e01b81526000916001600160a01b039081169190841690829063c455279190611141908890600401612176565b60206040518083038186803b15801561115957600080fd5b505afa15801561116d573d6000803e3d6000fd5b505050506040513d601f19601f820116820180604052508101906111919190612664565b6001600160a01b031614156111aa576001915050610521565b6001600160a01b0380851660009081526005602090815260408083209387168352929052205460ff165b949350505050565b6111e4611541565b6001600160a01b03166111f5610eeb565b6001600160a01b03161461121b5760405162461bcd60e51b815260040161062190612600565b6001600160a01b0381166112805760405162461bcd60e51b815260206004820152602660248201527f4f776e61626c653a206e6577206f776e657220697320746865207a65726f206160448201526564647265737360d01b6064820152608401610621565b600d546040516001600160a01b038084169216907f8be0079c531659141344cd1fd0a4f28419497f9722a3daafe3b4186f6b6457e090600090a3600d80546001600160a01b0319166001600160a01b0392909216919091179055565b6060806112e883611524565b6113275760405162461bcd60e51b815260206004820152601060248201526f1d1bdad95b881b9bdd081b5a5b9d195960821b6044820152606401610621565b600083815260106020526040808220815180830190925280548290829061134d906124e4565b80601f0160208091040260200160405190810160405280929190818152602001828054611379906124e4565b80156113c65780601f1061139b576101008083540402835291602001916113c6565b820191906000526020600020905b8154815290600101906020018083116113a957829003601f168201915b505050505081526020016001820180546113df906124e4565b80601f016020809104026020016040519081016040528092919081815260200182805461140b906124e4565b80156114585780601f1061142d57610100808354040283529160200191611458565b820191906000526020600020905b81548152906001019060200180831161143b57829003601f168201915b5050505050815250509050806000015192508060200151915050915091565b6000333014156114ce57600080368080601f0160208091040260200160405190810160405280939291908181526020018383808284376000920191909152505050503601516001600160a01b031691506114d19050565b50335b90565b60006001600160e01b031982166380ac58cd60e01b148061150557506001600160e01b03198216635b5e139f60e01b145b8061052157506301ffc9a760e01b6001600160e01b0319831614610521565b6000908152600260205260409020546001600160a01b0316151590565b600061154b611477565b905090565b600081815260046020526040902080546001600160a01b0319166001600160a01b038416908117909155819061158582610b24565b6001600160a01b03167f8c5be1e5ebec7d5bd14f71427d1e84f3dd0314c0f7b2291e5b200ac8c7c3b92560405160405180910390a45050565b60006001600160a01b0386166116245760405162461bcd60e51b815260206004820152602560248201527f4e61746976654d6574615472616e73616374696f6e3a20494e56414c49445f5360448201526424a3a722a960d91b6064820152608401610621565b600161163761163287611aa9565b611b26565b6040805160008152602081018083529290925260ff851690820152606081018690526080810185905260a0016020604051602081039080840390855afa158015611685573d6000803e3d6000fd5b505050602060405103516001600160a01b0316866001600160a01b031614905095945050505050565b6000610ee48284612697565b60006116c582611524565b6117265760405162461bcd60e51b815260206004820152602c60248201527f4552433732313a206f70657261746f7220717565727920666f72206e6f6e657860448201526b34b9ba32b73a103a37b5b2b760a11b6064820152608401610621565b600061173183610b24565b9050806001600160a01b0316846001600160a01b0316148061176c5750836001600160a01b0316611761846105b9565b6001600160a01b0316145b806111d457506111d48185611108565b826001600160a01b031661178f82610b24565b6001600160a01b0316146117f75760405162461bcd60e51b815260206004820152602960248201527f4552433732313a207472616e73666572206f6620746f6b656e2074686174206960448201526839903737ba1037bbb760b91b6064820152608401610621565b6001600160a01b0382166118595760405162461bcd60e51b8152602060048201526024808201527f4552433732313a207472616e7366657220746f20746865207a65726f206164646044820152637265737360e01b6064820152608401610621565b611864838383611b56565b61186f600082611550565b6001600160a01b03831660009081526003602052604081208054600192906118989084906126af565b90915550506001600160a01b03821660009081526003602052604081208054600192906118c6908490612697565b909155505060008181526002602052604080822080546001600160a01b0319166001600160a01b0386811691821790925591518493918716917fddf252ad1be2c89b69c2b068fc378daa952ba7f163c4a11628f55a4df523b3ef91a4505050565b60004244848460405160200161194094939291906126c6565b60408051601f1981840301815291905280516020909101209392505050565b610b20828260405180602001604052806000815250611c0e565b61198484848461177c565b61199084848484611c41565b6110405760405162461bcd60e51b815260040161062190612702565b6060816119d05750506040805180820190915260018152600360fc1b602082015290565b8160005b81156119fa57806119e481612754565b91506119f39050600a83612785565b91506119d4565b6000816001600160401b03811115611a1457611a146121cb565b6040519080825280601f01601f191660200182016040528015611a3e576020820181803683370190505b5090505b84156111d457611a536001836126af565b9150611a60600a86612799565b611a6b906030612697565b60f81b818381518110611a8057611a806125ea565b60200101906001600160f81b031916908160001a905350611aa2600a86612785565b9450611a42565b600060405180608001604052806043815260200161281e6043913980516020918201208351848301516040808701518051908601209051611b09950193845260208401929092526001600160a01b03166040830152606082015260800190565b604051602081830303815290604052805190602001209050919050565b6000611b31600b5490565b60405161190160f01b6020820152602281019190915260428101839052606201611b09565b6001600160a01b038316611bb157611bac81600880546000838152600960205260408120829055600182018355919091527ff3f7a9fe364faab93b216da50a3214154f22a0a2b415b23a84c8169e8b636ee30155565b611bd4565b816001600160a01b0316836001600160a01b031614611bd457611bd48382611d55565b6001600160a01b038216611beb5761076481611df2565b826001600160a01b0316826001600160a01b031614610764576107648282611ea1565b611c188383611ee5565b611c256000848484611c41565b6107645760405162461bcd60e51b815260040161062190612702565b60006001600160a01b0384163b15611d4a57836001600160a01b031663150b7a02611c6a611541565b8786866040518563ffffffff1660e01b8152600401611c8c94939291906127ad565b602060405180830381600087803b158015611ca657600080fd5b505af1925050508015611cd6575060408051601f3d908101601f19168201909252611cd3918101906127ea565b60015b611d30573d808015611d04576040519150601f19603f3d011682016040523d82523d6000602084013e611d09565b606091505b508051611d285760405162461bcd60e51b815260040161062190612702565b805181602001fd5b6001600160e01b031916630a85bd0160e11b1490506111d4565b506001949350505050565b60006001611d6284610b9b565b611d6c91906126af565b600083815260076020526040902054909150808214611dbf576001600160a01b03841660009081526006602090815260408083208584528252808320548484528184208190558352600790915290208190555b5060009182526007602090815260408084208490556001600160a01b039094168352600681528383209183525290812055565b600854600090611e04906001906126af565b60008381526009602052604081205460088054939450909284908110611e2c57611e2c6125ea565b906000526020600020015490508060088381548110611e4d57611e4d6125ea565b6000918252602080832090910192909255828152600990915260408082208490558582528120556008805480611e8557611e85612807565b6001900381819060005260206000200160009055905550505050565b6000611eac83610b9b565b6001600160a01b039093166000908152600660209081526040808320868452825280832085905593825260079052919091209190915550565b6001600160a01b038216611f3b5760405162461bcd60e51b815260206004820181905260248201527f4552433732313a206d696e7420746f20746865207a65726f20616464726573736044820152606401610621565b611f4481611524565b15611f905760405162461bcd60e51b815260206004820152601c60248201527b115490cdcc8c4e881d1bdad95b88185b1c9958591e481b5a5b9d195960221b6044820152606401610621565b611f9c60008383611b56565b6001600160a01b0382166000908152600360205260408120805460019290611fc5908490612697565b909155505060008181526002602052604080822080546001600160a01b0319166001600160a01b03861690811790915590518392907fddf252ad1be2c89b69c2b068fc378daa952ba7f163c4a11628f55a4df523b3ef908290a45050565b82805461202f906124e4565b90600052602060002090601f0160209004810192826120515760008555612097565b82601f1061206a57805160ff1916838001178555612097565b82800160010185558215612097579182015b8281111561209757825182559160200191906001019061207c565b506120a39291506120a7565b5090565b5b808211156120a357600081556001016120a8565b6001600160e01b0319811681146120d257600080fd5b50565b6000602082840312156120e757600080fd5b8135610ee4816120bc565b60005b8381101561210d5781810151838201526020016120f5565b838111156110405750506000910152565b600081518084526121368160208601602086016120f2565b601f01601f19169290920160200192915050565b602081526000610ee4602083018461211e565b60006020828403121561216f57600080fd5b5035919050565b6001600160a01b0391909116815260200190565b6001600160a01b03811681146120d257600080fd5b600080604083850312156121b257600080fd5b82356121bd8161218a565b946020939093013593505050565b634e487b7160e01b600052604160045260246000fd5b600082601f8301126121f257600080fd5b81356001600160401b038082111561220c5761220c6121cb565b604051601f8301601f19908116603f01168101908282118183101715612234576122346121cb565b8160405283815286602085880101111561224d57600080fd5b836020870160208301376000602085830101528094505050505092915050565b600080600080600060a0868803121561228557600080fd5b85356122908161218a565b945060208601356001600160401b038111156122ab57600080fd5b6122b7888289016121e1565b9450506040860135925060608601359150608086013560ff811681146122dc57600080fd5b809150509295509295909350565b6000806000606084860312156122ff57600080fd5b833561230a8161218a565b9250602084013561231a8161218a565b929592945050506040919091013590565b60006020828403121561233d57600080fd5b8135610ee48161218a565b60006020828403121561235a57600080fd5b81356001600160401b0381111561237057600080fd5b6111d4848285016121e1565b6000806040838503121561238f57600080fd5b82356001600160401b03808211156123a657600080fd5b6123b2868387016121e1565b935060208501359150808211156123c857600080fd5b506123d5858286016121e1565b9150509250929050565b600080604083850312156123f257600080fd5b82356123fd8161218a565b91506020830135801515811461241257600080fd5b809150509250929050565b6000806000806080858703121561243357600080fd5b843561243e8161218a565b9350602085013561244e8161218a565b92506040850135915060608501356001600160401b0381111561247057600080fd5b61247c878288016121e1565b91505092959194509250565b6000806040838503121561249b57600080fd5b82356124a68161218a565b915060208301356124128161218a565b6040815260006124c9604083018561211e565b82810360208401526124db818561211e565b95945050505050565b600181811c908216806124f857607f821691505b6020821081141561251957634e487b7160e01b600052602260045260246000fd5b50919050565b6001600160a01b038481168252831660208201526060604082018190526000906124db9083018461211e565b6000835161255d8184602088016120f2565b60609390931b6001600160601b0319169190920190815260140192915050565b6000825161258f8184602087016120f2565b9190910192915050565b60208082526031908201527f4552433732313a207472616e736665722063616c6c6572206973206e6f74206f6040820152701ddb995c881b9bdc88185c1c1c9bdd9959607a1b606082015260800190565b634e487b7160e01b600052603260045260246000fd5b6020808252818101527f4f776e61626c653a2063616c6c6572206973206e6f7420746865206f776e6572604082015260600190565b600083516126478184602088016120f2565b83519083019061265b8183602088016120f2565b01949350505050565b60006020828403121561267657600080fd5b8151610ee48161218a565b634e487b7160e01b600052601160045260246000fd5b600082198211156126aa576126aa612681565b500190565b6000828210156126c1576126c1612681565b500390565b8481528360208201526080604082015260006126e5608083018561211e565b82810360608401526126f7818561211e565b979650505050505050565b60208082526032908201527f4552433732313a207472616e7366657220746f206e6f6e20455243373231526560408201527131b2b4bb32b91034b6b83632b6b2b73a32b960711b606082015260800190565b600060001982141561276857612768612681565b5060010190565b634e487b7160e01b600052601260045260246000fd5b6000826127945761279461276f565b500490565b6000826127a8576127a861276f565b500690565b6001600160a01b03858116825284166020820152604081018390526080606082018190526000906127e09083018461211e565b9695505050505050565b6000602082840312156127fc57600080fd5b8151610ee4816120bc565b634e487b7160e01b600052603160045260246000fdfe4d6574615472616e73616374696f6e2875696e74323536206e6f6e63652c616464726573732066726f6d2c62797465732066756e6374696f6e5369676e617475726529a2646970667358221220005063ba2f57b07ede5b5302055fc4ec9a641bbfe758fca5277289eb830f8d6864736f6c63430008090033454950373132446f6d61696e28737472696e67206e616d652c737472696e672076657273696f6e2c6164647265737320766572696679696e67436f6e74726163742c627974657333322073616c742968747470733a2f2f6c656176652d612d6d61726b2d696e2d6d6574612e6865726f6b756170702e636f6d2f6170692f746f6b656e2f",
    "immutableReferences": {},
    "source": "pragma solidity ^0.8.0;\nimport \"./ERC721Tradable.sol\";\n\n\ncontract LeaveAMark is ERC721Tradable { \n  struct Mark {\n    string name;\n    string value;\n  }\n\n  mapping(uint256 => Mark) id_to_mark;\n\n  mapping(string => uint256) mark_name_to_id;\n\n  string private _currentBaseURI;\n\n  constructor(address _proxyRegistryAddress) ERC721Tradable(\"LeaveAMark\", \"LAM\", _proxyRegistryAddress) {\n    setBaseURI(\"https://leave-a-mark-in-meta.herokuapp.com/api/token/\");\n  }\n\n  function setBaseURI(string memory baseURI) public onlyOwner {\n        _currentBaseURI = baseURI;\n    }\n\n  function baseTokenURI() virtual public view override returns (string memory) {\n      return _currentBaseURI;\n  }\n\n  function mint(string memory name, string memory value) external onlyOwner returns(uint256) {\n    require(bytes(name).length > 0, \"The name must not be empty\");\n    require(bytes(value).length > 0, \"The value must not be empty\");\n    require(bytes(name).length < 25, \"The name must be shorter than 25 characters\");\n    require(mark_name_to_id[name] == 0, \"The name has been taken\");\n    uint256 tokenId = id(name, value);\n        \n    id_to_mark[tokenId] = Mark(name, value);\n    mark_name_to_id[name] = tokenId;\n    _safeMint(msg.sender, tokenId);\n    return tokenId;\n  }\n\n  function id(string memory name, string memory value) view internal returns(uint256) {\n    // Psudo random id generator\n    return uint256(keccak256(abi.encode(block.timestamp, block.difficulty, name, value)));\n  }\n\n  function get_mark(uint256 tokenId) external view returns (string memory name, string memory value) {\n      require(_exists(tokenId), \"token not minted\");\n      Mark memory theMark = id_to_mark[tokenId];\n      name = theMark.name;\n      value = theMark.value;\n  }\n\n  function get_id(string memory name) external view returns (uint256 id_of_mark) {\n      id_of_mark = mark_name_to_id[name];\n      require(id_of_mark != 0, \"This name has not been claimed\");\n  }\n}\n",
    "sourcePath": "/Users/liyuxian/Documents/leave-a-mark/contracts/LeaveAMark.sol",
    "compiler": {
        "name": "solc",
        "version": "0.8.9+commit.e5eed63a.Emscripten.clang"
    },
    "schemaVersion": "3.4.3",
    "updatedAt": "2021-11-07T23:45:34.898Z",
    "networkType": "ethereum",
    "devdoc": {
        "kind": "dev",
        "methods": {
            "approve(address,uint256)": {
                "details": "See {IERC721-approve}."
            },
            "balanceOf(address)": {
                "details": "See {IERC721-balanceOf}."
            },
            "getApproved(uint256)": {
                "details": "See {IERC721-getApproved}."
            },
            "name()": {
                "details": "See {IERC721Metadata-name}."
            },
            "owner()": {
                "details": "Returns the address of the current owner."
            },
            "ownerOf(uint256)": {
                "details": "See {IERC721-ownerOf}."
            },
            "renounceOwnership()": {
                "details": "Leaves the contract without owner. It will not be possible to call `onlyOwner` functions anymore. Can only be called by the current owner. NOTE: Renouncing ownership will leave the contract without an owner, thereby removing any functionality that is only available to the owner."
            },
            "safeTransferFrom(address,address,uint256)": {
                "details": "See {IERC721-safeTransferFrom}."
            },
            "safeTransferFrom(address,address,uint256,bytes)": {
                "details": "See {IERC721-safeTransferFrom}."
            },
            "setApprovalForAll(address,bool)": {
                "details": "See {IERC721-setApprovalForAll}."
            },
            "supportsInterface(bytes4)": {
                "details": "See {IERC165-supportsInterface}."
            },
            "symbol()": {
                "details": "See {IERC721Metadata-symbol}."
            },
            "tokenByIndex(uint256)": {
                "details": "See {IERC721Enumerable-tokenByIndex}."
            },
            "tokenOfOwnerByIndex(address,uint256)": {
                "details": "See {IERC721Enumerable-tokenOfOwnerByIndex}."
            },
            "totalSupply()": {
                "details": "See {IERC721Enumerable-totalSupply}."
            },
            "transferFrom(address,address,uint256)": {
                "details": "See {IERC721-transferFrom}."
            },
            "transferOwnership(address)": {
                "details": "Transfers ownership of the contract to a new account (`newOwner`). Can only be called by the current owner."
            }
        },
        "version": 1
    },
    "userdoc": {
        "kind": "user",
        "methods": {
            "isApprovedForAll(address,address)": {
                "notice": "Override isApprovedForAll to whitelist user's OpenSea proxy accounts to enable gas-less listings."
            }
        },
        "version": 1
    }
}