{
    "contractName": "LeaveAMark",
    "abi": [
        {
            "inputs": [
                {
                    "internalType": "address",
                    "name": "_proxyRegistryAddress",
                    "type": "address"
                }
            ],
            "stateMutability": "nonpayable",
            "type": "constructor"
        },
        {
            "anonymous": false,
            "inputs": [
                {
                    "indexed": true,
                    "internalType": "address",
                    "name": "owner",
                    "type": "address"
                },
                {
                    "indexed": true,
                    "internalType": "address",
                    "name": "approved",
                    "type": "address"
                },
                {
                    "indexed": true,
                    "internalType": "uint256",
                    "name": "tokenId",
                    "type": "uint256"
                }
            ],
            "name": "Approval",
            "type": "event"
        },
        {
            "anonymous": false,
            "inputs": [
                {
                    "indexed": true,
                    "internalType": "address",
                    "name": "owner",
                    "type": "address"
                },
                {
                    "indexed": true,
                    "internalType": "address",
                    "name": "operator",
                    "type": "address"
                },
                {
                    "indexed": false,
                    "internalType": "bool",
                    "name": "approved",
                    "type": "bool"
                }
            ],
            "name": "ApprovalForAll",
            "type": "event"
        },
        {
            "anonymous": false,
            "inputs": [
                {
                    "indexed": false,
                    "internalType": "address",
                    "name": "userAddress",
                    "type": "address"
                },
                {
                    "indexed": false,
                    "internalType": "address payable",
                    "name": "relayerAddress",
                    "type": "address"
                },
                {
                    "indexed": false,
                    "internalType": "bytes",
                    "name": "functionSignature",
                    "type": "bytes"
                }
            ],
            "name": "MetaTransactionExecuted",
            "type": "event"
        },
        {
            "anonymous": false,
            "inputs": [
                {
                    "indexed": true,
                    "internalType": "address",
                    "name": "previousOwner",
                    "type": "address"
                },
                {
                    "indexed": true,
                    "internalType": "address",
                    "name": "newOwner",
                    "type": "address"
                }
            ],
            "name": "OwnershipTransferred",
            "type": "event"
        },
        {
            "anonymous": false,
            "inputs": [
                {
                    "indexed": true,
                    "internalType": "address",
                    "name": "from",
                    "type": "address"
                },
                {
                    "indexed": true,
                    "internalType": "address",
                    "name": "to",
                    "type": "address"
                },
                {
                    "indexed": true,
                    "internalType": "uint256",
                    "name": "tokenId",
                    "type": "uint256"
                }
            ],
            "name": "Transfer",
            "type": "event"
        },
        {
            "inputs": [],
            "name": "ERC712_VERSION",
            "outputs": [
                {
                    "internalType": "string",
                    "name": "",
                    "type": "string"
                }
            ],
            "stateMutability": "view",
            "type": "function",
            "constant": true
        },
        {
            "inputs": [
                {
                    "internalType": "address",
                    "name": "to",
                    "type": "address"
                },
                {
                    "internalType": "uint256",
                    "name": "tokenId",
                    "type": "uint256"
                }
            ],
            "name": "approve",
            "outputs": [],
            "stateMutability": "nonpayable",
            "type": "function"
        },
        {
            "inputs": [
                {
                    "internalType": "address",
                    "name": "owner",
                    "type": "address"
                }
            ],
            "name": "balanceOf",
            "outputs": [
                {
                    "internalType": "uint256",
                    "name": "",
                    "type": "uint256"
                }
            ],
            "stateMutability": "view",
            "type": "function",
            "constant": true
        },
        {
            "inputs": [
                {
                    "internalType": "address",
                    "name": "userAddress",
                    "type": "address"
                },
                {
                    "internalType": "bytes",
                    "name": "functionSignature",
                    "type": "bytes"
                },
                {
                    "internalType": "bytes32",
                    "name": "sigR",
                    "type": "bytes32"
                },
                {
                    "internalType": "bytes32",
                    "name": "sigS",
                    "type": "bytes32"
                },
                {
                    "internalType": "uint8",
                    "name": "sigV",
                    "type": "uint8"
                }
            ],
            "name": "executeMetaTransaction",
            "outputs": [
                {
                    "internalType": "bytes",
                    "name": "",
                    "type": "bytes"
                }
            ],
            "stateMutability": "payable",
            "type": "function",
            "payable": true
        },
        {
            "inputs": [
                {
                    "internalType": "uint256",
                    "name": "tokenId",
                    "type": "uint256"
                }
            ],
            "name": "getApproved",
            "outputs": [
                {
                    "internalType": "address",
                    "name": "",
                    "type": "address"
                }
            ],
            "stateMutability": "view",
            "type": "function",
            "constant": true
        },
        {
            "inputs": [],
            "name": "getChainId",
            "outputs": [
                {
                    "internalType": "uint256",
                    "name": "",
                    "type": "uint256"
                }
            ],
            "stateMutability": "view",
            "type": "function",
            "constant": true
        },
        {
            "inputs": [],
            "name": "getDomainSeperator",
            "outputs": [
                {
                    "internalType": "bytes32",
                    "name": "",
                    "type": "bytes32"
                }
            ],
            "stateMutability": "view",
            "type": "function",
            "constant": true
        },
        {
            "inputs": [
                {
                    "internalType": "address",
                    "name": "user",
                    "type": "address"
                }
            ],
            "name": "getNonce",
            "outputs": [
                {
                    "internalType": "uint256",
                    "name": "nonce",
                    "type": "uint256"
                }
            ],
            "stateMutability": "view",
            "type": "function",
            "constant": true
        },
        {
            "inputs": [
                {
                    "internalType": "address",
                    "name": "owner",
                    "type": "address"
                },
                {
                    "internalType": "address",
                    "name": "operator",
                    "type": "address"
                }
            ],
            "name": "isApprovedForAll",
            "outputs": [
                {
                    "internalType": "bool",
                    "name": "",
                    "type": "bool"
                }
            ],
            "stateMutability": "view",
            "type": "function",
            "constant": true
        },
        {
            "inputs": [],
            "name": "name",
            "outputs": [
                {
                    "internalType": "string",
                    "name": "",
                    "type": "string"
                }
            ],
            "stateMutability": "view",
            "type": "function",
            "constant": true
        },
        {
            "inputs": [],
            "name": "owner",
            "outputs": [
                {
                    "internalType": "address",
                    "name": "",
                    "type": "address"
                }
            ],
            "stateMutability": "view",
            "type": "function",
            "constant": true
        },
        {
            "inputs": [
                {
                    "internalType": "uint256",
                    "name": "tokenId",
                    "type": "uint256"
                }
            ],
            "name": "ownerOf",
            "outputs": [
                {
                    "internalType": "address",
                    "name": "",
                    "type": "address"
                }
            ],
            "stateMutability": "view",
            "type": "function",
            "constant": true
        },
        {
            "inputs": [],
            "name": "renounceOwnership",
            "outputs": [],
            "stateMutability": "nonpayable",
            "type": "function"
        },
        {
            "inputs": [
                {
                    "internalType": "address",
                    "name": "from",
                    "type": "address"
                },
                {
                    "internalType": "address",
                    "name": "to",
                    "type": "address"
                },
                {
                    "internalType": "uint256",
                    "name": "tokenId",
                    "type": "uint256"
                }
            ],
            "name": "safeTransferFrom",
            "outputs": [],
            "stateMutability": "nonpayable",
            "type": "function"
        },
        {
            "inputs": [
                {
                    "internalType": "address",
                    "name": "from",
                    "type": "address"
                },
                {
                    "internalType": "address",
                    "name": "to",
                    "type": "address"
                },
                {
                    "internalType": "uint256",
                    "name": "tokenId",
                    "type": "uint256"
                },
                {
                    "internalType": "bytes",
                    "name": "_data",
                    "type": "bytes"
                }
            ],
            "name": "safeTransferFrom",
            "outputs": [],
            "stateMutability": "nonpayable",
            "type": "function"
        },
        {
            "inputs": [
                {
                    "internalType": "address",
                    "name": "operator",
                    "type": "address"
                },
                {
                    "internalType": "bool",
                    "name": "approved",
                    "type": "bool"
                }
            ],
            "name": "setApprovalForAll",
            "outputs": [],
            "stateMutability": "nonpayable",
            "type": "function"
        },
        {
            "inputs": [
                {
                    "internalType": "bytes4",
                    "name": "interfaceId",
                    "type": "bytes4"
                }
            ],
            "name": "supportsInterface",
            "outputs": [
                {
                    "internalType": "bool",
                    "name": "",
                    "type": "bool"
                }
            ],
            "stateMutability": "view",
            "type": "function",
            "constant": true
        },
        {
            "inputs": [],
            "name": "symbol",
            "outputs": [
                {
                    "internalType": "string",
                    "name": "",
                    "type": "string"
                }
            ],
            "stateMutability": "view",
            "type": "function",
            "constant": true
        },
        {
            "inputs": [
                {
                    "internalType": "uint256",
                    "name": "index",
                    "type": "uint256"
                }
            ],
            "name": "tokenByIndex",
            "outputs": [
                {
                    "internalType": "uint256",
                    "name": "",
                    "type": "uint256"
                }
            ],
            "stateMutability": "view",
            "type": "function",
            "constant": true
        },
        {
            "inputs": [
                {
                    "internalType": "address",
                    "name": "owner",
                    "type": "address"
                },
                {
                    "internalType": "uint256",
                    "name": "index",
                    "type": "uint256"
                }
            ],
            "name": "tokenOfOwnerByIndex",
            "outputs": [
                {
                    "internalType": "uint256",
                    "name": "",
                    "type": "uint256"
                }
            ],
            "stateMutability": "view",
            "type": "function",
            "constant": true
        },
        {
            "inputs": [
                {
                    "internalType": "uint256",
                    "name": "_tokenId",
                    "type": "uint256"
                }
            ],
            "name": "tokenURI",
            "outputs": [
                {
                    "internalType": "string",
                    "name": "",
                    "type": "string"
                }
            ],
            "stateMutability": "view",
            "type": "function",
            "constant": true
        },
        {
            "inputs": [],
            "name": "totalSupply",
            "outputs": [
                {
                    "internalType": "uint256",
                    "name": "",
                    "type": "uint256"
                }
            ],
            "stateMutability": "view",
            "type": "function",
            "constant": true
        },
        {
            "inputs": [
                {
                    "internalType": "address",
                    "name": "from",
                    "type": "address"
                },
                {
                    "internalType": "address",
                    "name": "to",
                    "type": "address"
                },
                {
                    "internalType": "uint256",
                    "name": "tokenId",
                    "type": "uint256"
                }
            ],
            "name": "transferFrom",
            "outputs": [],
            "stateMutability": "nonpayable",
            "type": "function"
        },
        {
            "inputs": [
                {
                    "internalType": "address",
                    "name": "newOwner",
                    "type": "address"
                }
            ],
            "name": "transferOwnership",
            "outputs": [],
            "stateMutability": "nonpayable",
            "type": "function"
        },
        {
            "inputs": [
                {
                    "internalType": "string",
                    "name": "baseURI",
                    "type": "string"
                }
            ],
            "name": "setBaseURI",
            "outputs": [],
            "stateMutability": "nonpayable",
            "type": "function"
        },
        {
            "inputs": [],
            "name": "baseTokenURI",
            "outputs": [
                {
                    "internalType": "string",
                    "name": "",
                    "type": "string"
                }
            ],
            "stateMutability": "view",
            "type": "function",
            "constant": true
        },
        {
            "inputs": [
                {
                    "internalType": "string",
                    "name": "name",
                    "type": "string"
                },
                {
                    "internalType": "string",
                    "name": "value",
                    "type": "string"
                }
            ],
            "name": "mint",
            "outputs": [],
            "stateMutability": "nonpayable",
            "type": "function"
        },
        {
            "inputs": [
                {
                    "internalType": "uint256",
                    "name": "tokenId",
                    "type": "uint256"
                }
            ],
            "name": "get",
            "outputs": [
                {
                    "internalType": "string",
                    "name": "name",
                    "type": "string"
                },
                {
                    "internalType": "string",
                    "name": "value",
                    "type": "string"
                }
            ],
            "stateMutability": "view",
            "type": "function",
            "constant": true
        }
    ],
    "bytecode": "0x6080604052600a805460ff191690556000600f553480156200002057600080fd5b5060405162002b9d38038062002b9d833981016040819052620000439162000444565b6040518060400160405280600a8152602001694c65617665414d61726b60b01b815250604051806040016040528060038152602001624c414d60e81b81525082828281600090805190602001906200009d9291906200039e565b508051620000b39060019060208401906200039e565b5050506000620000c86200018560201b60201c565b600d80546001600160a01b0319166001600160a01b038316908117909155604051919250906000907f8be0079c531659141344cd1fd0a4f28419497f9722a3daafe3b4186f6b6457e0908290a350600e80546001600160a01b0319166001600160a01b0383161790556200013c83620001a1565b505060408051808201909152601f81527f68747470733a2f2f706c6163652e686f6c6465722e7572692f746f6b656e2f0060208201526200017e915062000206565b50620004b3565b60006200019c6200029d60201b620012651760201c565b905090565b600a5460ff1615620001eb5760405162461bcd60e51b815260206004820152600e60248201526d185b1c9958591e481a5b9a5d195960921b60448201526064015b60405180910390fd5b620001f681620002fc565b50600a805460ff19166001179055565b6200021062000185565b6001600160a01b03166200022c600d546001600160a01b031690565b6001600160a01b031614620002845760405162461bcd60e51b815260206004820181905260248201527f4f776e61626c653a2063616c6c6572206973206e6f7420746865206f776e65726044820152606401620001e2565b8051620002999060119060208401906200039e565b5050565b600033301415620002f657600080368080601f0160208091040260200160405190810160405280939291908181526020018383808284376000920191909152505050503601516001600160a01b03169150620002f99050565b50335b90565b6040518060800160405280604f815260200162002b4e604f9139805160209182012082519282019290922060408051808201825260018152603160f81b90840152805180840194909452838101919091527fc89efdaa54c0f20c7adf612882df0950f5a951637e0307cdcb4c672f298b8bc660608401523060808401524660a0808501919091528151808503909101815260c090930190528151910120600b55565b828054620003ac9062000476565b90600052602060002090601f016020900481019282620003d057600085556200041b565b82601f10620003eb57805160ff19168380011785556200041b565b828001600101855582156200041b579182015b828111156200041b578251825591602001919060010190620003fe565b50620004299291506200042d565b5090565b5b808211156200042957600081556001016200042e565b6000602082840312156200045757600080fd5b81516001600160a01b03811681146200046f57600080fd5b9392505050565b600181811c908216806200048b57607f821691505b60208210811415620004ad57634e487b7160e01b600052602260045260246000fd5b50919050565b61268b80620004c36000396000f3fe6080604052600436106101475760003560e01c806301ffc9a71461014c57806306fdde0314610181578063081812fc146101a3578063095ea7b3146101d05780630c53c51c146101f25780630f7e59701461020557806318160ddd1461023257806320379ee51461025157806323b872dd146102665780632d0335ab146102865780632f745c59146102bc5780633408e470146102dc57806342842e0e146102ef5780634f6ccce71461030f57806355f804b31461032f5780636352211e1461034f57806370a082311461036f578063715018a61461038f5780638aa0fdad146103a45780638da5cb5b146103c45780639507d39a146103d957806395d89b4114610407578063a22cb4651461041c578063b88d4fde1461043c578063c87b56dd1461045c578063d547cfb71461047c578063e985e9c514610491578063f2fde38b146104b1575b600080fd5b34801561015857600080fd5b5061016c610167366004611eca565b6104d1565b60405190151581526020015b60405180910390f35b34801561018d57600080fd5b506101966104fc565b6040516101789190611f3f565b3480156101af57600080fd5b506101c36101be366004611f52565b61058e565b6040516101789190611f6b565b3480156101dc57600080fd5b506101f06101eb366004611f94565b61061b565b005b610196610200366004612062565b61073e565b34801561021157600080fd5b50610196604051806040016040528060018152602001603160f81b81525081565b34801561023e57600080fd5b506008545b604051908152602001610178565b34801561025d57600080fd5b50600b54610243565b34801561027257600080fd5b506101f06102813660046120df565b610927565b34801561029257600080fd5b506102436102a1366004612120565b6001600160a01b03166000908152600c602052604090205490565b3480156102c857600080fd5b506102436102d7366004611f94565b61095f565b3480156102e857600080fd5b5046610243565b3480156102fb57600080fd5b506101f061030a3660046120df565b6109f5565b34801561031b57600080fd5b5061024361032a366004611f52565b610a10565b34801561033b57600080fd5b506101f061034a36600461213d565b610aa3565b34801561035b57600080fd5b506101c361036a366004611f52565b610af9565b34801561037b57600080fd5b5061024361038a366004612120565b610b70565b34801561039b57600080fd5b506101f0610bf7565b3480156103b057600080fd5b506101f06103bf366004612171565b610c80565b3480156103d057600080fd5b506101c3610d52565b3480156103e557600080fd5b506103f96103f4366004611f52565b610d61565b6040516101789291906121d4565b34801561041357600080fd5b50610196610efc565b34801561042857600080fd5b506101f0610437366004612202565b610f0b565b34801561044857600080fd5b506101f0610457366004612240565b611009565b34801561046857600080fd5b50610196610477366004611f52565b611048565b34801561048857600080fd5b50610196611082565b34801561049d57600080fd5b5061016c6104ac3660046122ab565b611091565b3480156104bd57600080fd5b506101f06104cc366004612120565b611165565b60006001600160e01b0319821663780e9d6360e01b14806104f657506104f6826112c2565b92915050565b60606000805461050b906122d9565b80601f0160208091040260200160405190810160405280929190818152602001828054610537906122d9565b80156105845780601f1061055957610100808354040283529160200191610584565b820191906000526020600020905b81548152906001019060200180831161056757829003601f168201915b5050505050905090565b600061059982611312565b6105ff5760405162461bcd60e51b815260206004820152602c60248201527f4552433732313a20617070726f76656420717565727920666f72206e6f6e657860448201526b34b9ba32b73a103a37b5b2b760a11b60648201526084015b60405180910390fd5b506000908152600460205260409020546001600160a01b031690565b600061062682610af9565b9050806001600160a01b0316836001600160a01b031614156106945760405162461bcd60e51b815260206004820152602160248201527f4552433732313a20617070726f76616c20746f2063757272656e74206f776e656044820152603960f91b60648201526084016105f6565b806001600160a01b03166106a661132f565b6001600160a01b031614806106c257506106c2816104ac61132f565b61072f5760405162461bcd60e51b815260206004820152603860248201527f4552433732313a20617070726f76652063616c6c6572206973206e6f74206f776044820152771b995c881b9bdc88185c1c1c9bdd995908199bdc88185b1b60421b60648201526084016105f6565b610739838361133e565b505050565b60408051606081810183526001600160a01b0388166000818152600c60209081529085902054845283015291810186905261077c87828787876113ac565b6107d25760405162461bcd60e51b815260206004820152602160248201527f5369676e657220616e64207369676e617475726520646f206e6f74206d6174636044820152600d60fb1b60648201526084016105f6565b6001600160a01b0387166000908152600c60205260409020546107f690600161149c565b6001600160a01b0388166000908152600c60205260409081902091909155517f5845892132946850460bff5a0083f71031bc5bf9aadcd40f1de79423eac9b10b9061084690899033908a90612314565b60405180910390a1600080306001600160a01b0316888a60405160200161086e929190612340565b60408051601f198184030181529082905261088891612372565b6000604051808303816000865af19150503d80600081146108c5576040519150601f19603f3d011682016040523d82523d6000602084013e6108ca565b606091505b50915091508161091b5760405162461bcd60e51b815260206004820152601c60248201527b119d5b98dd1a5bdb8818d85b1b081b9bdd081cdd58d8d95cdcd99d5b60221b60448201526064016105f6565b98975050505050505050565b61093861093261132f565b826114af565b6109545760405162461bcd60e51b81526004016105f69061238e565b610739838383611571565b600061096a83610b70565b82106109cc5760405162461bcd60e51b815260206004820152602b60248201527f455243373231456e756d657261626c653a206f776e657220696e646578206f7560448201526a74206f6620626f756e647360a81b60648201526084016105f6565b506001600160a01b03919091166000908152600660209081526040808320938352929052205490565b61073983838360405180602001604052806000815250611009565b6000610a1b60085490565b8210610a7e5760405162461bcd60e51b815260206004820152602c60248201527f455243373231456e756d657261626c653a20676c6f62616c20696e646578206f60448201526b7574206f6620626f756e647360a01b60648201526084016105f6565b60088281548110610a9157610a916123df565b90600052602060002001549050919050565b610aab61132f565b6001600160a01b0316610abc610d52565b6001600160a01b031614610ae25760405162461bcd60e51b81526004016105f6906123f5565b8051610af5906011906020840190611e18565b5050565b6000818152600260205260408120546001600160a01b0316806104f65760405162461bcd60e51b815260206004820152602960248201527f4552433732313a206f776e657220717565727920666f72206e6f6e657869737460448201526832b73a103a37b5b2b760b91b60648201526084016105f6565b60006001600160a01b038216610bdb5760405162461bcd60e51b815260206004820152602a60248201527f4552433732313a2062616c616e636520717565727920666f7220746865207a65604482015269726f206164647265737360b01b60648201526084016105f6565b506001600160a01b031660009081526003602052604090205490565b610bff61132f565b6001600160a01b0316610c10610d52565b6001600160a01b031614610c365760405162461bcd60e51b81526004016105f6906123f5565b600d546040516000916001600160a01b0316907f8be0079c531659141344cd1fd0a4f28419497f9722a3daafe3b4186f6b6457e0908390a3600d80546001600160a01b0319169055565b6019825110610ce55760405162461bcd60e51b815260206004820152602b60248201527f546865206e616d65206d7573742062652073686f72746572207468616e20323560448201526a206368617261637465727360a81b60648201526084016105f6565b6000610cf1838361171c565b6040805180820182528581526020808201869052600084815260108252929092208151805194955091939092610d2b928492910190611e18565b506020828101518051610d449260018501920190611e18565b509050506107393382611754565b600d546001600160a01b031690565b606080610d6d83611312565b610dac5760405162461bcd60e51b815260206004820152601060248201526f1d1bdad95b881b9bdd081b5a5b9d195960821b60448201526064016105f6565b6000838152601060205260408082208151808301909252805482908290610dd2906122d9565b80601f0160208091040260200160405190810160405280929190818152602001828054610dfe906122d9565b8015610e4b5780601f10610e2057610100808354040283529160200191610e4b565b820191906000526020600020905b815481529060010190602001808311610e2e57829003601f168201915b50505050508152602001600182018054610e64906122d9565b80601f0160208091040260200160405190810160405280929190818152602001828054610e90906122d9565b8015610edd5780601f10610eb257610100808354040283529160200191610edd565b820191906000526020600020905b815481529060010190602001808311610ec057829003601f168201915b5050505050815250509050806000015192508060200151915050915091565b60606001805461050b906122d9565b610f1361132f565b6001600160a01b0316826001600160a01b03161415610f705760405162461bcd60e51b815260206004820152601960248201527822a9219b99189d1030b8383937bb32903a379031b0b63632b960391b60448201526064016105f6565b8060056000610f7d61132f565b6001600160a01b03908116825260208083019390935260409182016000908120918716808252919093529120805460ff191692151592909217909155610fc161132f565b6001600160a01b03167f17307eab39ab6107e8899845ad3d59bd9653f200f220920489ca2b5937696c3183604051610ffd911515815260200190565b60405180910390a35050565b61101a61101461132f565b836114af565b6110365760405162461bcd60e51b81526004016105f69061238e565b6110428484848461176e565b50505050565b6060611052611082565b61105b836117a1565b60405160200161106c92919061242a565b6040516020818303038152906040529050919050565b60606011805461050b906122d9565b600e5460405163c455279160e01b81526000916001600160a01b039081169190841690829063c4552791906110ca908890600401611f6b565b60206040518083038186803b1580156110e257600080fd5b505afa1580156110f6573d6000803e3d6000fd5b505050506040513d601f19601f8201168201806040525081019061111a9190612459565b6001600160a01b031614156111335760019150506104f6565b6001600160a01b0380851660009081526005602090815260408083209387168352929052205460ff165b949350505050565b61116d61132f565b6001600160a01b031661117e610d52565b6001600160a01b0316146111a45760405162461bcd60e51b81526004016105f6906123f5565b6001600160a01b0381166112095760405162461bcd60e51b815260206004820152602660248201527f4f776e61626c653a206e6577206f776e657220697320746865207a65726f206160448201526564647265737360d01b60648201526084016105f6565b600d546040516001600160a01b038084169216907f8be0079c531659141344cd1fd0a4f28419497f9722a3daafe3b4186f6b6457e090600090a3600d80546001600160a01b0319166001600160a01b0392909216919091179055565b6000333014156112bc57600080368080601f0160208091040260200160405190810160405280939291908181526020018383808284376000920191909152505050503601516001600160a01b031691506112bf9050565b50335b90565b60006001600160e01b031982166380ac58cd60e01b14806112f357506001600160e01b03198216635b5e139f60e01b145b806104f657506301ffc9a760e01b6001600160e01b03198316146104f6565b6000908152600260205260409020546001600160a01b0316151590565b6000611339611265565b905090565b600081815260046020526040902080546001600160a01b0319166001600160a01b038416908117909155819061137382610af9565b6001600160a01b03167f8c5be1e5ebec7d5bd14f71427d1e84f3dd0314c0f7b2291e5b200ac8c7c3b92560405160405180910390a45050565b60006001600160a01b0386166114125760405162461bcd60e51b815260206004820152602560248201527f4e61746976654d6574615472616e73616374696f6e3a20494e56414c49445f5360448201526424a3a722a960d91b60648201526084016105f6565b60016114256114208761189e565b61191b565b6040805160008152602081018083529290925260ff851690820152606081018690526080810185905260a0016020604051602081039080840390855afa158015611473573d6000803e3d6000fd5b505050602060405103516001600160a01b0316866001600160a01b031614905095945050505050565b60006114a8828461248c565b9392505050565b60006114ba82611312565b61151b5760405162461bcd60e51b815260206004820152602c60248201527f4552433732313a206f70657261746f7220717565727920666f72206e6f6e657860448201526b34b9ba32b73a103a37b5b2b760a11b60648201526084016105f6565b600061152683610af9565b9050806001600160a01b0316846001600160a01b031614806115615750836001600160a01b03166115568461058e565b6001600160a01b0316145b8061115d575061115d8185611091565b826001600160a01b031661158482610af9565b6001600160a01b0316146115ec5760405162461bcd60e51b815260206004820152602960248201527f4552433732313a207472616e73666572206f6620746f6b656e2074686174206960448201526839903737ba1037bbb760b91b60648201526084016105f6565b6001600160a01b03821661164e5760405162461bcd60e51b8152602060048201526024808201527f4552433732313a207472616e7366657220746f20746865207a65726f206164646044820152637265737360e01b60648201526084016105f6565b61165983838361194b565b61166460008261133e565b6001600160a01b038316600090815260036020526040812080546001929061168d9084906124a4565b90915550506001600160a01b03821660009081526003602052604081208054600192906116bb90849061248c565b909155505060008181526002602052604080822080546001600160a01b0319166001600160a01b0386811691821790925591518493918716917fddf252ad1be2c89b69c2b068fc378daa952ba7f163c4a11628f55a4df523b3ef91a4505050565b60004244848460405160200161173594939291906124bb565b60408051601f1981840301815291905280516020909101209392505050565b610af5828260405180602001604052806000815250611a03565b611779848484611571565b61178584848484611a36565b6110425760405162461bcd60e51b81526004016105f6906124f7565b6060816117c55750506040805180820190915260018152600360fc1b602082015290565b8160005b81156117ef57806117d981612549565b91506117e89050600a8361257a565b91506117c9565b6000816001600160401b0381111561180957611809611fc0565b6040519080825280601f01601f191660200182016040528015611833576020820181803683370190505b5090505b841561115d576118486001836124a4565b9150611855600a8661258e565b61186090603061248c565b60f81b818381518110611875576118756123df565b60200101906001600160f81b031916908160001a905350611897600a8661257a565b9450611837565b600060405180608001604052806043815260200161261360439139805160209182012083518483015160408087015180519086012090516118fe950193845260208401929092526001600160a01b03166040830152606082015260800190565b604051602081830303815290604052805190602001209050919050565b6000611926600b5490565b60405161190160f01b60208201526022810191909152604281018390526062016118fe565b6001600160a01b0383166119a6576119a181600880546000838152600960205260408120829055600182018355919091527ff3f7a9fe364faab93b216da50a3214154f22a0a2b415b23a84c8169e8b636ee30155565b6119c9565b816001600160a01b0316836001600160a01b0316146119c9576119c98382611b4a565b6001600160a01b0382166119e05761073981611be7565b826001600160a01b0316826001600160a01b031614610739576107398282611c96565b611a0d8383611cda565b611a1a6000848484611a36565b6107395760405162461bcd60e51b81526004016105f6906124f7565b60006001600160a01b0384163b15611b3f57836001600160a01b031663150b7a02611a5f61132f565b8786866040518563ffffffff1660e01b8152600401611a8194939291906125a2565b602060405180830381600087803b158015611a9b57600080fd5b505af1925050508015611acb575060408051601f3d908101601f19168201909252611ac8918101906125df565b60015b611b25573d808015611af9576040519150601f19603f3d011682016040523d82523d6000602084013e611afe565b606091505b508051611b1d5760405162461bcd60e51b81526004016105f6906124f7565b805181602001fd5b6001600160e01b031916630a85bd0160e11b14905061115d565b506001949350505050565b60006001611b5784610b70565b611b6191906124a4565b600083815260076020526040902054909150808214611bb4576001600160a01b03841660009081526006602090815260408083208584528252808320548484528184208190558352600790915290208190555b5060009182526007602090815260408084208490556001600160a01b039094168352600681528383209183525290812055565b600854600090611bf9906001906124a4565b60008381526009602052604081205460088054939450909284908110611c2157611c216123df565b906000526020600020015490508060088381548110611c4257611c426123df565b6000918252602080832090910192909255828152600990915260408082208490558582528120556008805480611c7a57611c7a6125fc565b6001900381819060005260206000200160009055905550505050565b6000611ca183610b70565b6001600160a01b039093166000908152600660209081526040808320868452825280832085905593825260079052919091209190915550565b6001600160a01b038216611d305760405162461bcd60e51b815260206004820181905260248201527f4552433732313a206d696e7420746f20746865207a65726f206164647265737360448201526064016105f6565b611d3981611312565b15611d855760405162461bcd60e51b815260206004820152601c60248201527b115490cdcc8c4e881d1bdad95b88185b1c9958591e481b5a5b9d195960221b60448201526064016105f6565b611d916000838361194b565b6001600160a01b0382166000908152600360205260408120805460019290611dba90849061248c565b909155505060008181526002602052604080822080546001600160a01b0319166001600160a01b03861690811790915590518392907fddf252ad1be2c89b69c2b068fc378daa952ba7f163c4a11628f55a4df523b3ef908290a45050565b828054611e24906122d9565b90600052602060002090601f016020900481019282611e465760008555611e8c565b82601f10611e5f57805160ff1916838001178555611e8c565b82800160010185558215611e8c579182015b82811115611e8c578251825591602001919060010190611e71565b50611e98929150611e9c565b5090565b5b80821115611e985760008155600101611e9d565b6001600160e01b031981168114611ec757600080fd5b50565b600060208284031215611edc57600080fd5b81356114a881611eb1565b60005b83811015611f02578181015183820152602001611eea565b838111156110425750506000910152565b60008151808452611f2b816020860160208601611ee7565b601f01601f19169290920160200192915050565b6020815260006114a86020830184611f13565b600060208284031215611f6457600080fd5b5035919050565b6001600160a01b0391909116815260200190565b6001600160a01b0381168114611ec757600080fd5b60008060408385031215611fa757600080fd5b8235611fb281611f7f565b946020939093013593505050565b634e487b7160e01b600052604160045260246000fd5b600082601f830112611fe757600080fd5b81356001600160401b038082111561200157612001611fc0565b604051601f8301601f19908116603f0116810190828211818310171561202957612029611fc0565b8160405283815286602085880101111561204257600080fd5b836020870160208301376000602085830101528094505050505092915050565b600080600080600060a0868803121561207a57600080fd5b853561208581611f7f565b945060208601356001600160401b038111156120a057600080fd5b6120ac88828901611fd6565b9450506040860135925060608601359150608086013560ff811681146120d157600080fd5b809150509295509295909350565b6000806000606084860312156120f457600080fd5b83356120ff81611f7f565b9250602084013561210f81611f7f565b929592945050506040919091013590565b60006020828403121561213257600080fd5b81356114a881611f7f565b60006020828403121561214f57600080fd5b81356001600160401b0381111561216557600080fd5b61115d84828501611fd6565b6000806040838503121561218457600080fd5b82356001600160401b038082111561219b57600080fd5b6121a786838701611fd6565b935060208501359150808211156121bd57600080fd5b506121ca85828601611fd6565b9150509250929050565b6040815260006121e76040830185611f13565b82810360208401526121f98185611f13565b95945050505050565b6000806040838503121561221557600080fd5b823561222081611f7f565b91506020830135801515811461223557600080fd5b809150509250929050565b6000806000806080858703121561225657600080fd5b843561226181611f7f565b9350602085013561227181611f7f565b92506040850135915060608501356001600160401b0381111561229357600080fd5b61229f87828801611fd6565b91505092959194509250565b600080604083850312156122be57600080fd5b82356122c981611f7f565b9150602083013561223581611f7f565b600181811c908216806122ed57607f821691505b6020821081141561230e57634e487b7160e01b600052602260045260246000fd5b50919050565b6001600160a01b038481168252831660208201526060604082018190526000906121f990830184611f13565b60008351612352818460208801611ee7565b60609390931b6001600160601b0319169190920190815260140192915050565b60008251612384818460208701611ee7565b9190910192915050565b60208082526031908201527f4552433732313a207472616e736665722063616c6c6572206973206e6f74206f6040820152701ddb995c881b9bdc88185c1c1c9bdd9959607a1b606082015260800190565b634e487b7160e01b600052603260045260246000fd5b6020808252818101527f4f776e61626c653a2063616c6c6572206973206e6f7420746865206f776e6572604082015260600190565b6000835161243c818460208801611ee7565b835190830190612450818360208801611ee7565b01949350505050565b60006020828403121561246b57600080fd5b81516114a881611f7f565b634e487b7160e01b600052601160045260246000fd5b6000821982111561249f5761249f612476565b500190565b6000828210156124b6576124b6612476565b500390565b8481528360208201526080604082015260006124da6080830185611f13565b82810360608401526124ec8185611f13565b979650505050505050565b60208082526032908201527f4552433732313a207472616e7366657220746f206e6f6e20455243373231526560408201527131b2b4bb32b91034b6b83632b6b2b73a32b960711b606082015260800190565b600060001982141561255d5761255d612476565b5060010190565b634e487b7160e01b600052601260045260246000fd5b60008261258957612589612564565b500490565b60008261259d5761259d612564565b500690565b6001600160a01b03858116825284166020820152604081018390526080606082018190526000906125d590830184611f13565b9695505050505050565b6000602082840312156125f157600080fd5b81516114a881611eb1565b634e487b7160e01b600052603160045260246000fdfe4d6574615472616e73616374696f6e2875696e74323536206e6f6e63652c616464726573732066726f6d2c62797465732066756e6374696f6e5369676e617475726529a2646970667358221220ecaa9402f8421fef00c662a58566adbe5767a8b1691a1b01b3fd9cf79dab4a7364736f6c63430008090033454950373132446f6d61696e28737472696e67206e616d652c737472696e672076657273696f6e2c6164647265737320766572696679696e67436f6e74726163742c627974657333322073616c7429",
    "immutableReferences": {},
    "source": "pragma solidity ^0.8.0;\nimport \"./ERC721Tradable.sol\";\n\n\ncontract LeaveAMark is ERC721Tradable { \n  struct Mark {\n    string name;\n    string value;\n  }\n\n  mapping(uint256 => Mark) id_to_mark;\n\n  string private _currentBaseURI;\n\n  constructor(address _proxyRegistryAddress) ERC721Tradable(\"LeaveAMark\", \"LAM\", _proxyRegistryAddress) {\n    setBaseURI(\"https://place.holder.uri/token/\");\n  }\n\n  function setBaseURI(string memory baseURI) public onlyOwner {\n        _currentBaseURI = baseURI;\n    }\n\n  function baseTokenURI() virtual public view override returns (string memory) {\n      return _currentBaseURI;\n  }\n\n  function mint(string memory name, string memory value) external {\n    require(bytes(name).length < 25, \"The name must be shorter than 25 characters\");\n    uint256 tokenId = id(name, value);\n        \n    id_to_mark[tokenId] = Mark(name, value);\n    _safeMint(msg.sender, tokenId);\n  }\n\n  function id(string memory name, string memory value) view internal returns(uint256) {\n    // Psudo random id generator\n    return uint256(keccak256(abi.encode(block.timestamp, block.difficulty, name, value)));\n  }\n\n  function get(uint256 tokenId) external view returns (string memory name, string memory value) {\n      require(_exists(tokenId), \"token not minted\");\n      Mark memory theMark = id_to_mark[tokenId];\n      name = theMark.name;\n      value = theMark.value;\n  }\n}\n",
    "sourcePath": "/Users/liyuxian/Documents/leave-a-mark/contracts/LeaveAMark.sol",
    "compiler": {
        "name": "solc",
        "version": "0.8.9+commit.e5eed63a.Emscripten.clang"
    },
    "schemaVersion": "3.4.3",
    "updatedAt": "2021-11-06T22:52:04.915Z",
    "networkType": "ethereum",
    "devdoc": {
        "kind": "dev",
        "methods": {
            "approve(address,uint256)": {
                "details": "See {IERC721-approve}."
            },
            "balanceOf(address)": {
                "details": "See {IERC721-balanceOf}."
            },
            "getApproved(uint256)": {
                "details": "See {IERC721-getApproved}."
            },
            "name()": {
                "details": "See {IERC721Metadata-name}."
            },
            "owner()": {
                "details": "Returns the address of the current owner."
            },
            "ownerOf(uint256)": {
                "details": "See {IERC721-ownerOf}."
            },
            "renounceOwnership()": {
                "details": "Leaves the contract without owner. It will not be possible to call `onlyOwner` functions anymore. Can only be called by the current owner. NOTE: Renouncing ownership will leave the contract without an owner, thereby removing any functionality that is only available to the owner."
            },
            "safeTransferFrom(address,address,uint256)": {
                "details": "See {IERC721-safeTransferFrom}."
            },
            "safeTransferFrom(address,address,uint256,bytes)": {
                "details": "See {IERC721-safeTransferFrom}."
            },
            "setApprovalForAll(address,bool)": {
                "details": "See {IERC721-setApprovalForAll}."
            },
            "supportsInterface(bytes4)": {
                "details": "See {IERC165-supportsInterface}."
            },
            "symbol()": {
                "details": "See {IERC721Metadata-symbol}."
            },
            "tokenByIndex(uint256)": {
                "details": "See {IERC721Enumerable-tokenByIndex}."
            },
            "tokenOfOwnerByIndex(address,uint256)": {
                "details": "See {IERC721Enumerable-tokenOfOwnerByIndex}."
            },
            "totalSupply()": {
                "details": "See {IERC721Enumerable-totalSupply}."
            },
            "transferFrom(address,address,uint256)": {
                "details": "See {IERC721-transferFrom}."
            },
            "transferOwnership(address)": {
                "details": "Transfers ownership of the contract to a new account (`newOwner`). Can only be called by the current owner."
            }
        },
        "version": 1
    },
    "userdoc": {
        "kind": "user",
        "methods": {
            "isApprovedForAll(address,address)": {
                "notice": "Override isApprovedForAll to whitelist user's OpenSea proxy accounts to enable gas-less listings."
            }
        },
        "version": 1
    }
}